{
	"MultiSigWallet.sol": {
		"MultiSigWallet": {
			"abi": [
				{
					"inputs": [
						{
							"internalType": "uint256",
							"name": "",
							"type": "uint256"
						},
						{
							"internalType": "address",
							"name": "",
							"type": "address"
						}
					],
					"name": "approvals",
					"outputs": [
						{
							"internalType": "bool",
							"name": "",
							"type": "bool"
						}
					],
					"stateMutability": "view",
					"type": "function"
				},
				{
					"inputs": [
						{
							"internalType": "uint256",
							"name": "txIndex",
							"type": "uint256"
						}
					],
					"name": "approveTransaction",
					"outputs": [],
					"stateMutability": "nonpayable",
					"type": "function"
				},
				{
					"inputs": [
						{
							"internalType": "uint256",
							"name": "txIndex",
							"type": "uint256"
						}
					],
					"name": "executeTransaction",
					"outputs": [],
					"stateMutability": "nonpayable",
					"type": "function"
				},
				{
					"inputs": [
						{
							"internalType": "address[]",
							"name": "_owners",
							"type": "address[]"
						},
						{
							"internalType": "uint256",
							"name": "_requiredApprovals",
							"type": "uint256"
						}
					],
					"name": "initialize",
					"outputs": [],
					"stateMutability": "nonpayable",
					"type": "function"
				},
				{
					"inputs": [],
					"name": "initialized",
					"outputs": [
						{
							"internalType": "bool",
							"name": "",
							"type": "bool"
						}
					],
					"stateMutability": "view",
					"type": "function"
				},
				{
					"inputs": [
						{
							"internalType": "address",
							"name": "",
							"type": "address"
						}
					],
					"name": "isOwner",
					"outputs": [
						{
							"internalType": "bool",
							"name": "",
							"type": "bool"
						}
					],
					"stateMutability": "view",
					"type": "function"
				},
				{
					"inputs": [
						{
							"internalType": "uint256",
							"name": "",
							"type": "uint256"
						}
					],
					"name": "owners",
					"outputs": [
						{
							"internalType": "address",
							"name": "",
							"type": "address"
						}
					],
					"stateMutability": "view",
					"type": "function"
				},
				{
					"inputs": [],
					"name": "requiredApprovals",
					"outputs": [
						{
							"internalType": "uint256",
							"name": "",
							"type": "uint256"
						}
					],
					"stateMutability": "view",
					"type": "function"
				},
				{
					"inputs": [
						{
							"internalType": "uint256",
							"name": "txIndex",
							"type": "uint256"
						}
					],
					"name": "revokeApproval",
					"outputs": [],
					"stateMutability": "nonpayable",
					"type": "function"
				},
				{
					"inputs": [
						{
							"internalType": "address",
							"name": "to",
							"type": "address"
						},
						{
							"internalType": "uint256",
							"name": "value",
							"type": "uint256"
						},
						{
							"internalType": "bytes",
							"name": "data",
							"type": "bytes"
						}
					],
					"name": "submitTransaction",
					"outputs": [],
					"stateMutability": "nonpayable",
					"type": "function"
				},
				{
					"inputs": [
						{
							"internalType": "uint256",
							"name": "",
							"type": "uint256"
						}
					],
					"name": "transactions",
					"outputs": [
						{
							"internalType": "address",
							"name": "to",
							"type": "address"
						},
						{
							"internalType": "uint256",
							"name": "value",
							"type": "uint256"
						},
						{
							"internalType": "bytes",
							"name": "data",
							"type": "bytes"
						},
						{
							"internalType": "bool",
							"name": "executed",
							"type": "bool"
						},
						{
							"internalType": "uint256",
							"name": "approvalCount",
							"type": "uint256"
						}
					],
					"stateMutability": "view",
					"type": "function"
				},
				{
					"stateMutability": "payable",
					"type": "receive"
				}
			],
			"devdoc": {
				"kind": "dev",
				"methods": {},
				"version": 1
			},
			"evm": {
				"assembly": "    /* \"MultiSigWallet.sol\":102:2784  contract MultiSigWallet {... */\n  mstore(0x40, 0x80)\n  callvalue\n  dup1\n  iszero\n  tag_1\n  jumpi\n  revert(0x00, 0x00)\ntag_1:\n  pop\n  dataSize(sub_0)\n  dup1\n  dataOffset(sub_0)\n  0x00\n  codecopy\n  0x00\n  return\nstop\n\nsub_0: assembly {\n        /* \"MultiSigWallet.sol\":102:2784  contract MultiSigWallet {... */\n      mstore(0x40, 0x80)\n      jumpi(tag_1, lt(calldatasize, 0x04))\n      shr(0xe0, calldataload(0x00))\n      dup1\n      0x99c1aadc\n      gt\n      tag_14\n      jumpi\n      dup1\n      0x99c1aadc\n      eq\n      tag_8\n      jumpi\n      dup1\n      0x9ace38c2\n      eq\n      tag_9\n      jumpi\n      dup1\n      0xab2850da\n      eq\n      tag_10\n      jumpi\n      dup1\n      0xb1e130fc\n      eq\n      tag_11\n      jumpi\n      dup1\n      0xc6427474\n      eq\n      tag_12\n      jumpi\n      dup1\n      0xee22610b\n      eq\n      tag_13\n      jumpi\n      revert(0x00, 0x00)\n    tag_14:\n      dup1\n      0x025e7c27\n      eq\n      tag_3\n      jumpi\n      dup1\n      0x158ef93e\n      eq\n      tag_4\n      jumpi\n      dup1\n      0x242232d1\n      eq\n      tag_5\n      jumpi\n      dup1\n      0x2f54bf6e\n      eq\n      tag_6\n      jumpi\n      dup1\n      0x60b5bb3f\n      eq\n      tag_7\n      jumpi\n      revert(0x00, 0x00)\n    tag_1:\n      jumpi(tag_2, calldatasize)\n      stop\n    tag_2:\n      revert(0x00, 0x00)\n        /* \"MultiSigWallet.sol\":133:156  address[] public owners */\n    tag_3:\n      callvalue\n      dup1\n      iszero\n      tag_17\n      jumpi\n      revert(0x00, 0x00)\n    tag_17:\n      pop\n      tag_18\n      tag_19\n      calldatasize\n      0x04\n      tag_20\n      jump\t// in\n    tag_19:\n      tag_21\n      jump\t// in\n    tag_18:\n      mload(0x40)\n      sub(shl(0xa0, 0x01), 0x01)\n        /* \"#utility.yul\":409:441   */\n      swap1\n      swap2\n      and\n        /* \"#utility.yul\":391:442   */\n      dup2\n      mstore\n        /* \"#utility.yul\":379:381   */\n      0x20\n        /* \"#utility.yul\":364:382   */\n      add\n        /* \"MultiSigWallet.sol\":133:156  address[] public owners */\n    tag_22:\n      mload(0x40)\n      dup1\n      swap2\n      sub\n      swap1\n      return\n        /* \"MultiSigWallet.sol\":245:268  bool public initialized */\n    tag_4:\n      callvalue\n      dup1\n      iszero\n      tag_24\n      jumpi\n      revert(0x00, 0x00)\n    tag_24:\n      pop\n      sload(0x03)\n      tag_25\n      swap1\n      0xff\n      and\n      dup2\n      jump\n    tag_25:\n      mload(0x40)\n        /* \"#utility.yul\":618:632   */\n      swap1\n      iszero\n        /* \"#utility.yul\":611:633   */\n      iszero\n        /* \"#utility.yul\":593:634   */\n      dup2\n      mstore\n        /* \"#utility.yul\":581:583   */\n      0x20\n        /* \"#utility.yul\":566:584   */\n      add\n        /* \"MultiSigWallet.sol\":245:268  bool public initialized */\n      tag_22\n        /* \"#utility.yul\":453:640   */\n      jump\n        /* \"MultiSigWallet.sol\":1660:1991  function approveTransaction(uint txIndex) external onlyOwner {... */\n    tag_5:\n      callvalue\n      dup1\n      iszero\n      tag_29\n      jumpi\n      revert(0x00, 0x00)\n    tag_29:\n      pop\n      tag_30\n      tag_31\n      calldatasize\n      0x04\n      tag_20\n      jump\t// in\n    tag_31:\n      tag_32\n      jump\t// in\n    tag_30:\n      stop\n        /* \"MultiSigWallet.sol\":163:202  mapping(address => bool) public isOwner */\n    tag_6:\n      callvalue\n      dup1\n      iszero\n      tag_33\n      jumpi\n      revert(0x00, 0x00)\n    tag_33:\n      pop\n      tag_25\n      tag_35\n      calldatasize\n      0x04\n      tag_36\n      jump\t// in\n    tag_35:\n      mstore(0x20, 0x01)\n      0x00\n      swap1\n      dup2\n      mstore\n      0x40\n      swap1\n      keccak256\n      sload\n      0xff\n      and\n      dup2\n      jump\n        /* \"MultiSigWallet.sol\":639:1357  function initialize(address[] calldata _owners, uint _requiredApprovals) external {... */\n    tag_7:\n      callvalue\n      dup1\n      iszero\n      tag_39\n      jumpi\n      revert(0x00, 0x00)\n    tag_39:\n      pop\n      tag_30\n      tag_41\n      calldatasize\n      0x04\n      tag_42\n      jump\t// in\n    tag_41:\n      tag_43\n      jump\t// in\n        /* \"MultiSigWallet.sol\":209:238  uint public requiredApprovals */\n    tag_8:\n      callvalue\n      dup1\n      iszero\n      tag_44\n      jumpi\n      revert(0x00, 0x00)\n    tag_44:\n      pop\n      tag_45\n      sload(0x02)\n      dup2\n      jump\n    tag_45:\n      mload(0x40)\n        /* \"#utility.yul\":1895:1920   */\n      swap1\n      dup2\n      mstore\n        /* \"#utility.yul\":1883:1885   */\n      0x20\n        /* \"#utility.yul\":1868:1886   */\n      add\n        /* \"MultiSigWallet.sol\":209:238  uint public requiredApprovals */\n      tag_22\n        /* \"#utility.yul\":1749:1926   */\n      jump\n        /* \"MultiSigWallet.sol\":428:461  Transaction[] public transactions */\n    tag_9:\n      callvalue\n      dup1\n      iszero\n      tag_49\n      jumpi\n      revert(0x00, 0x00)\n    tag_49:\n      pop\n      tag_50\n      tag_51\n      calldatasize\n      0x04\n      tag_20\n      jump\t// in\n    tag_51:\n      tag_52\n      jump\t// in\n    tag_50:\n      mload(0x40)\n      tag_22\n      swap6\n      swap5\n      swap4\n      swap3\n      swap2\n      swap1\n      tag_54\n      jump\t// in\n        /* \"MultiSigWallet.sol\":468:526  mapping(uint => mapping(address => bool)) public approvals */\n    tag_10:\n      callvalue\n      dup1\n      iszero\n      tag_55\n      jumpi\n      revert(0x00, 0x00)\n    tag_55:\n      pop\n      tag_25\n      tag_57\n      calldatasize\n      0x04\n      tag_58\n      jump\t// in\n    tag_57:\n      0x05\n      0x20\n      swap1\n      dup2\n      mstore\n      0x00\n      swap3\n      dup4\n      mstore\n      0x40\n      dup1\n      dup5\n      keccak256\n      swap1\n      swap2\n      mstore\n      swap1\n      dup3\n      mstore\n      swap1\n      keccak256\n      sload\n      0xff\n      and\n      dup2\n      jump\n        /* \"MultiSigWallet.sol\":1999:2326  function revokeApproval(uint txIndex) external onlyOwner {... */\n    tag_11:\n      callvalue\n      dup1\n      iszero\n      tag_61\n      jumpi\n      revert(0x00, 0x00)\n    tag_61:\n      pop\n      tag_30\n      tag_63\n      calldatasize\n      0x04\n      tag_20\n      jump\t// in\n    tag_63:\n      tag_64\n      jump\t// in\n        /* \"MultiSigWallet.sol\":1365:1652  function submitTransaction(address to, uint value, bytes calldata data) external onlyOwner {... */\n    tag_12:\n      callvalue\n      dup1\n      iszero\n      tag_65\n      jumpi\n      revert(0x00, 0x00)\n    tag_65:\n      pop\n      tag_30\n      tag_67\n      calldatasize\n      0x04\n      tag_68\n      jump\t// in\n    tag_67:\n      tag_69\n      jump\t// in\n        /* \"MultiSigWallet.sol\":2334:2744  function executeTransaction(uint txIndex) external onlyOwner {... */\n    tag_13:\n      callvalue\n      dup1\n      iszero\n      tag_70\n      jumpi\n      revert(0x00, 0x00)\n    tag_70:\n      pop\n      tag_30\n      tag_72\n      calldatasize\n      0x04\n      tag_20\n      jump\t// in\n    tag_72:\n      tag_73\n      jump\t// in\n        /* \"MultiSigWallet.sol\":133:156  address[] public owners */\n    tag_21:\n      0x00\n      dup2\n      dup2\n      sload\n      dup2\n      lt\n      tag_74\n      jumpi\n      0x00\n      dup1\n      revert\n    tag_74:\n      0x00\n      swap2\n      dup3\n      mstore\n      0x20\n      swap1\n      swap2\n      keccak256\n      add\n      sload\n      sub(shl(0xa0, 0x01), 0x01)\n      and\n      swap1\n      pop\n      dup2\n      jump\t// out\n        /* \"MultiSigWallet.sol\":1660:1991  function approveTransaction(uint txIndex) external onlyOwner {... */\n    tag_32:\n        /* \"MultiSigWallet.sol\":583:593  msg.sender */\n      caller\n        /* \"MultiSigWallet.sol\":575:594  isOwner[msg.sender] */\n      0x00\n      swap1\n      dup2\n      mstore\n        /* \"MultiSigWallet.sol\":575:582  isOwner */\n      0x01\n        /* \"MultiSigWallet.sol\":575:594  isOwner[msg.sender] */\n      0x20\n      mstore\n      0x40\n      swap1\n      keccak256\n      sload\n      0xff\n      and\n        /* \"MultiSigWallet.sol\":567:611  require(isOwner[msg.sender], \"Not an owner\") */\n      tag_77\n      jumpi\n      mload(0x40)\n      shl(0xe5, 0x461bcd)\n      dup2\n      mstore\n      0x04\n      add\n      tag_78\n      swap1\n      tag_79\n      jump\t// in\n    tag_78:\n      mload(0x40)\n      dup1\n      swap2\n      sub\n      swap1\n      revert\n    tag_77:\n        /* \"MultiSigWallet.sol\":1732:1755  Transaction storage txn */\n      0x00\n        /* \"MultiSigWallet.sol\":1758:1770  transactions */\n      0x04\n        /* \"MultiSigWallet.sol\":1771:1778  txIndex */\n      dup3\n        /* \"MultiSigWallet.sol\":1758:1779  transactions[txIndex] */\n      dup2\n      sload\n      dup2\n      lt\n      tag_82\n      jumpi\n      tag_82\n      tag_83\n      jump\t// in\n    tag_82:\n      0x00\n      swap2\n      dup3\n      mstore\n      0x20\n      swap1\n      swap2\n      keccak256\n      0x05\n      swap1\n      swap2\n      mul\n      add\n        /* \"MultiSigWallet.sol\":1799:1811  txn.executed */\n      0x03\n      dup2\n      add\n      sload\n        /* \"MultiSigWallet.sol\":1758:1779  transactions[txIndex] */\n      swap1\n      swap2\n      pop\n        /* \"MultiSigWallet.sol\":1799:1811  txn.executed */\n      0xff\n      and\n        /* \"MultiSigWallet.sol\":1798:1811  !txn.executed */\n      iszero\n        /* \"MultiSigWallet.sol\":1790:1832  require(!txn.executed, \"Already executed\") */\n      tag_85\n      jumpi\n      mload(0x40)\n      shl(0xe5, 0x461bcd)\n      dup2\n      mstore\n      0x04\n      add\n      tag_78\n      swap1\n      tag_87\n      jump\t// in\n    tag_85:\n        /* \"MultiSigWallet.sol\":1852:1870  approvals[txIndex] */\n      0x00\n      dup3\n      dup2\n      mstore\n        /* \"MultiSigWallet.sol\":1852:1861  approvals */\n      0x05\n        /* \"MultiSigWallet.sol\":1852:1870  approvals[txIndex] */\n      0x20\n      swap1\n      dup2\n      mstore\n      0x40\n      dup1\n      dup4\n      keccak256\n        /* \"MultiSigWallet.sol\":1871:1881  msg.sender */\n      caller\n        /* \"MultiSigWallet.sol\":1852:1882  approvals[txIndex][msg.sender] */\n      dup5\n      mstore\n      swap1\n      swap2\n      mstore\n      swap1\n      keccak256\n      sload\n      0xff\n      and\n        /* \"MultiSigWallet.sol\":1851:1882  !approvals[txIndex][msg.sender] */\n      iszero\n        /* \"MultiSigWallet.sol\":1843:1903  require(!approvals[txIndex][msg.sender], \"Already approved\") */\n      tag_88\n      jumpi\n      mload(0x40)\n      shl(0xe5, 0x461bcd)\n      dup2\n      mstore\n        /* \"#utility.yul\":4782:4784   */\n      0x20\n        /* \"MultiSigWallet.sol\":1843:1903  require(!approvals[txIndex][msg.sender], \"Already approved\") */\n      0x04\n      dup3\n      add\n        /* \"#utility.yul\":4764:4785   */\n      mstore\n        /* \"#utility.yul\":4821:4823   */\n      0x10\n        /* \"#utility.yul\":4801:4819   */\n      0x24\n      dup3\n      add\n        /* \"#utility.yul\":4794:4824   */\n      mstore\n      shl(0x82, 0x105b1c9958591e48185c1c1c9bdd9959)\n        /* \"#utility.yul\":4840:4858   */\n      0x44\n      dup3\n      add\n        /* \"#utility.yul\":4833:4879   */\n      mstore\n        /* \"#utility.yul\":4896:4914   */\n      0x64\n      add\n        /* \"MultiSigWallet.sol\":1843:1903  require(!approvals[txIndex][msg.sender], \"Already approved\") */\n      tag_78\n        /* \"#utility.yul\":4580:4920   */\n      jump\n        /* \"MultiSigWallet.sol\":1843:1903  require(!approvals[txIndex][msg.sender], \"Already approved\") */\n    tag_88:\n        /* \"MultiSigWallet.sol\":1916:1934  approvals[txIndex] */\n      0x00\n      dup3\n      dup2\n      mstore\n        /* \"MultiSigWallet.sol\":1916:1925  approvals */\n      0x05\n        /* \"MultiSigWallet.sol\":1916:1934  approvals[txIndex] */\n      0x20\n      swap1\n      dup2\n      mstore\n      0x40\n      dup1\n      dup4\n      keccak256\n        /* \"MultiSigWallet.sol\":1935:1945  msg.sender */\n      caller\n        /* \"MultiSigWallet.sol\":1916:1946  approvals[txIndex][msg.sender] */\n      dup5\n      mstore\n      swap1\n      swap2\n      mstore\n      dup2\n      keccak256\n        /* \"MultiSigWallet.sol\":1916:1953  approvals[txIndex][msg.sender] = true */\n      dup1\n      sload\n      not(0xff)\n      and\n        /* \"MultiSigWallet.sol\":1949:1953  true */\n      0x01\n        /* \"MultiSigWallet.sol\":1916:1953  approvals[txIndex][msg.sender] = true */\n      or\n      swap1\n      sstore\n        /* \"MultiSigWallet.sol\":1964:1981  txn.approvalCount */\n      0x04\n      dup3\n      add\n        /* \"MultiSigWallet.sol\":1964:1983  txn.approvalCount++ */\n      dup1\n      sload\n      swap2\n      tag_91\n      dup4\n      tag_92\n      jump\t// in\n    tag_91:\n      swap2\n      swap1\n      pop\n      sstore\n      pop\n        /* \"MultiSigWallet.sol\":1721:1991  {... */\n      pop\n        /* \"MultiSigWallet.sol\":1660:1991  function approveTransaction(uint txIndex) external onlyOwner {... */\n      pop\n      jump\t// out\n        /* \"MultiSigWallet.sol\":639:1357  function initialize(address[] calldata _owners, uint _requiredApprovals) external {... */\n    tag_43:\n        /* \"MultiSigWallet.sol\":741:752  initialized */\n      and(0xff, sload(0x03))\n        /* \"MultiSigWallet.sol\":740:752  !initialized */\n      iszero\n        /* \"MultiSigWallet.sol\":732:776  require(!initialized, \"Already initialized\") */\n      tag_94\n      jumpi\n      mload(0x40)\n      shl(0xe5, 0x461bcd)\n      dup2\n      mstore\n        /* \"#utility.yul\":5399:5401   */\n      0x20\n        /* \"MultiSigWallet.sol\":732:776  require(!initialized, \"Already initialized\") */\n      0x04\n      dup3\n      add\n        /* \"#utility.yul\":5381:5402   */\n      mstore\n        /* \"#utility.yul\":5438:5440   */\n      0x13\n        /* \"#utility.yul\":5418:5436   */\n      0x24\n      dup3\n      add\n        /* \"#utility.yul\":5411:5441   */\n      mstore\n      shl(0x6a, 0x105b1c9958591e481a5b9a5d1a585b1a5e9959)\n        /* \"#utility.yul\":5457:5475   */\n      0x44\n      dup3\n      add\n        /* \"#utility.yul\":5450:5499   */\n      mstore\n        /* \"#utility.yul\":5516:5534   */\n      0x64\n      add\n        /* \"MultiSigWallet.sol\":732:776  require(!initialized, \"Already initialized\") */\n      tag_78\n        /* \"#utility.yul\":5197:5540   */\n      jump\n        /* \"MultiSigWallet.sol\":732:776  require(!initialized, \"Already initialized\") */\n    tag_94:\n        /* \"MultiSigWallet.sol\":795:813  _owners.length > 0 */\n      dup2\n        /* \"MultiSigWallet.sol\":787:827  require(_owners.length > 0, \"No owners\") */\n      tag_97\n      jumpi\n      mload(0x40)\n      shl(0xe5, 0x461bcd)\n      dup2\n      mstore\n        /* \"#utility.yul\":5747:5749   */\n      0x20\n        /* \"MultiSigWallet.sol\":787:827  require(_owners.length > 0, \"No owners\") */\n      0x04\n      dup3\n      add\n        /* \"#utility.yul\":5729:5750   */\n      mstore\n        /* \"#utility.yul\":5786:5787   */\n      0x09\n        /* \"#utility.yul\":5766:5784   */\n      0x24\n      dup3\n      add\n        /* \"#utility.yul\":5759:5788   */\n      mstore\n      shl(0xb8, 0x4e6f206f776e657273)\n        /* \"#utility.yul\":5804:5822   */\n      0x44\n      dup3\n      add\n        /* \"#utility.yul\":5797:5836   */\n      mstore\n        /* \"#utility.yul\":5853:5871   */\n      0x64\n      add\n        /* \"MultiSigWallet.sol\":787:827  require(_owners.length > 0, \"No owners\") */\n      tag_78\n        /* \"#utility.yul\":5545:5877   */\n      jump\n        /* \"MultiSigWallet.sol\":787:827  require(_owners.length > 0, \"No owners\") */\n    tag_97:\n        /* \"MultiSigWallet.sol\":881:882  0 */\n      0x00\n        /* \"MultiSigWallet.sol\":860:878  _requiredApprovals */\n      dup2\n        /* \"MultiSigWallet.sol\":860:882  _requiredApprovals > 0 */\n      gt\n        /* \"MultiSigWallet.sol\":860:922  _requiredApprovals > 0 && _requiredApprovals <= _owners.length */\n      dup1\n      iszero\n      tag_100\n      jumpi\n      pop\n        /* \"MultiSigWallet.sol\":886:922  _requiredApprovals <= _owners.length */\n      dup2\n      dup2\n      gt\n      iszero\n        /* \"MultiSigWallet.sol\":860:922  _requiredApprovals > 0 && _requiredApprovals <= _owners.length */\n    tag_100:\n        /* \"MultiSigWallet.sol\":838:976  require(... */\n      tag_101\n      jumpi\n      mload(0x40)\n      shl(0xe5, 0x461bcd)\n      dup2\n      mstore\n        /* \"#utility.yul\":6084:6086   */\n      0x20\n        /* \"MultiSigWallet.sol\":838:976  require(... */\n      0x04\n      dup3\n      add\n        /* \"#utility.yul\":6066:6087   */\n      mstore\n        /* \"#utility.yul\":6123:6125   */\n      0x1a\n        /* \"#utility.yul\":6103:6121   */\n      0x24\n      dup3\n      add\n        /* \"#utility.yul\":6096:6126   */\n      mstore\n        /* \"#utility.yul\":6162:6190   */\n      0x496e76616c696420726571756972656420617070726f76616c73000000000000\n        /* \"#utility.yul\":6142:6160   */\n      0x44\n      dup3\n      add\n        /* \"#utility.yul\":6135:6191   */\n      mstore\n        /* \"#utility.yul\":6208:6226   */\n      0x64\n      add\n        /* \"MultiSigWallet.sol\":838:976  require(... */\n      tag_78\n        /* \"#utility.yul\":5882:6232   */\n      jump\n        /* \"MultiSigWallet.sol\":838:976  require(... */\n    tag_101:\n        /* \"MultiSigWallet.sol\":994:1000  uint i */\n      0x00\n        /* \"MultiSigWallet.sol\":989:1270  for (uint i = 0; i < _owners.length; i++) {... */\n    tag_104:\n        /* \"MultiSigWallet.sol\":1006:1024  i < _owners.length */\n      dup3\n      dup2\n      lt\n        /* \"MultiSigWallet.sol\":989:1270  for (uint i = 0; i < _owners.length; i++) {... */\n      iszero\n      tag_105\n      jumpi\n        /* \"MultiSigWallet.sol\":1046:1059  address owner */\n      0x00\n        /* \"MultiSigWallet.sol\":1062:1069  _owners */\n      dup5\n      dup5\n        /* \"MultiSigWallet.sol\":1070:1071  i */\n      dup4\n        /* \"MultiSigWallet.sol\":1062:1072  _owners[i] */\n      dup2\n      dup2\n      lt\n      tag_108\n      jumpi\n      tag_108\n      tag_83\n      jump\t// in\n    tag_108:\n      swap1\n      pop\n      0x20\n      mul\n      add\n      0x20\n      dup2\n      add\n      swap1\n      tag_109\n      swap2\n      swap1\n      tag_36\n      jump\t// in\n    tag_109:\n        /* \"MultiSigWallet.sol\":1046:1072  address owner = _owners[i] */\n      swap1\n      pop\n      sub(shl(0xa0, 0x01), 0x01)\n        /* \"MultiSigWallet.sol\":1095:1114  owner != address(0) */\n      dup2\n      and\n        /* \"MultiSigWallet.sol\":1087:1131  require(owner != address(0), \"Zero address\") */\n      tag_110\n      jumpi\n      mload(0x40)\n      shl(0xe5, 0x461bcd)\n      dup2\n      mstore\n        /* \"#utility.yul\":6439:6441   */\n      0x20\n        /* \"MultiSigWallet.sol\":1087:1131  require(owner != address(0), \"Zero address\") */\n      0x04\n      dup3\n      add\n        /* \"#utility.yul\":6421:6442   */\n      mstore\n        /* \"#utility.yul\":6478:6480   */\n      0x0c\n        /* \"#utility.yul\":6458:6476   */\n      0x24\n      dup3\n      add\n        /* \"#utility.yul\":6451:6481   */\n      mstore\n      shl(0xa0, 0x5a65726f2061646472657373)\n        /* \"#utility.yul\":6497:6515   */\n      0x44\n      dup3\n      add\n        /* \"#utility.yul\":6490:6532   */\n      mstore\n        /* \"#utility.yul\":6549:6567   */\n      0x64\n      add\n        /* \"MultiSigWallet.sol\":1087:1131  require(owner != address(0), \"Zero address\") */\n      tag_78\n        /* \"#utility.yul\":6237:6573   */\n      jump\n        /* \"MultiSigWallet.sol\":1087:1131  require(owner != address(0), \"Zero address\") */\n    tag_110:\n      sub(shl(0xa0, 0x01), 0x01)\n        /* \"MultiSigWallet.sol\":1155:1169  isOwner[owner] */\n      dup2\n      and\n      0x00\n      swap1\n      dup2\n      mstore\n        /* \"MultiSigWallet.sol\":1155:1162  isOwner */\n      0x01\n        /* \"MultiSigWallet.sol\":1155:1169  isOwner[owner] */\n      0x20\n      mstore\n      0x40\n      swap1\n      keccak256\n      sload\n      0xff\n      and\n        /* \"MultiSigWallet.sol\":1154:1169  !isOwner[owner] */\n      iszero\n        /* \"MultiSigWallet.sol\":1146:1189  require(!isOwner[owner], \"Duplicate owner\") */\n      tag_113\n      jumpi\n      mload(0x40)\n      shl(0xe5, 0x461bcd)\n      dup2\n      mstore\n        /* \"#utility.yul\":6780:6782   */\n      0x20\n        /* \"MultiSigWallet.sol\":1146:1189  require(!isOwner[owner], \"Duplicate owner\") */\n      0x04\n      dup3\n      add\n        /* \"#utility.yul\":6762:6783   */\n      mstore\n        /* \"#utility.yul\":6819:6821   */\n      0x0f\n        /* \"#utility.yul\":6799:6817   */\n      0x24\n      dup3\n      add\n        /* \"#utility.yul\":6792:6822   */\n      mstore\n      shl(0x89, 0x223ab83634b1b0ba329037bbb732b9)\n        /* \"#utility.yul\":6838:6856   */\n      0x44\n      dup3\n      add\n        /* \"#utility.yul\":6831:6876   */\n      mstore\n        /* \"#utility.yul\":6893:6911   */\n      0x64\n      add\n        /* \"MultiSigWallet.sol\":1146:1189  require(!isOwner[owner], \"Duplicate owner\") */\n      tag_78\n        /* \"#utility.yul\":6578:6917   */\n      jump\n        /* \"MultiSigWallet.sol\":1146:1189  require(!isOwner[owner], \"Duplicate owner\") */\n    tag_113:\n      sub(shl(0xa0, 0x01), 0x01)\n        /* \"MultiSigWallet.sol\":1204:1218  isOwner[owner] */\n      and\n      0x00\n      dup2\n      dup2\n      mstore\n        /* \"MultiSigWallet.sol\":1221:1225  true */\n      0x01\n        /* \"MultiSigWallet.sol\":1204:1218  isOwner[owner] */\n      0x20\n      dup2\n      swap1\n      mstore\n      0x40\n      dup3\n      keccak256\n        /* \"MultiSigWallet.sol\":1204:1225  isOwner[owner] = true */\n      dup1\n      sload\n      not(0xff)\n      and\n      dup3\n      or\n      swap1\n      sstore\n        /* \"MultiSigWallet.sol\":1240:1258  owners.push(owner) */\n      dup2\n      sload\n      dup1\n      dup3\n      add\n      dup4\n      sstore\n      swap2\n      dup1\n      mstore\n      0x290decd9548b62a8d60345a988386fc84ba6bc95484008f6362f93160ef3e563\n      swap1\n      swap2\n      add\n      dup1\n      sload\n      not(sub(shl(0xa0, 0x01), 0x01))\n      and\n      swap1\n      swap3\n      or\n      swap1\n      swap2\n      sstore\n        /* \"MultiSigWallet.sol\":1026:1029  i++ */\n      add\n        /* \"MultiSigWallet.sol\":989:1270  for (uint i = 0; i < _owners.length; i++) {... */\n      jump(tag_104)\n    tag_105:\n      pop\n        /* \"MultiSigWallet.sol\":1282:1299  requiredApprovals */\n      0x02\n        /* \"MultiSigWallet.sol\":1282:1320  requiredApprovals = _requiredApprovals */\n      sstore\n      pop\n      pop\n        /* \"MultiSigWallet.sol\":1331:1342  initialized */\n      0x03\n        /* \"MultiSigWallet.sol\":1331:1349  initialized = true */\n      dup1\n      sload\n      not(0xff)\n      and\n        /* \"MultiSigWallet.sol\":1345:1349  true */\n      0x01\n        /* \"MultiSigWallet.sol\":1331:1349  initialized = true */\n      or\n      swap1\n      sstore\n        /* \"MultiSigWallet.sol\":639:1357  function initialize(address[] calldata _owners, uint _requiredApprovals) external {... */\n      jump\t// out\n        /* \"MultiSigWallet.sol\":428:461  Transaction[] public transactions */\n    tag_52:\n      0x04\n      dup2\n      dup2\n      sload\n      dup2\n      lt\n      tag_117\n      jumpi\n      0x00\n      dup1\n      revert\n    tag_117:\n      0x00\n      swap2\n      dup3\n      mstore\n      0x20\n      swap1\n      swap2\n      keccak256\n      0x05\n      swap1\n      swap2\n      mul\n      add\n      dup1\n      sload\n      0x01\n      dup3\n      add\n      sload\n      0x02\n      dup4\n      add\n      dup1\n      sload\n      sub(shl(0xa0, 0x01), 0x01)\n      swap1\n      swap4\n      and\n      swap5\n      pop\n      swap1\n      swap3\n      swap2\n      tag_119\n      swap1\n      tag_120\n      jump\t// in\n    tag_119:\n      dup1\n      0x1f\n      add\n      0x20\n      dup1\n      swap2\n      div\n      mul\n      0x20\n      add\n      mload(0x40)\n      swap1\n      dup2\n      add\n      0x40\n      mstore\n      dup1\n      swap3\n      swap2\n      swap1\n      dup2\n      dup2\n      mstore\n      0x20\n      add\n      dup3\n      dup1\n      sload\n      tag_121\n      swap1\n      tag_120\n      jump\t// in\n    tag_121:\n      dup1\n      iszero\n      tag_122\n      jumpi\n      dup1\n      0x1f\n      lt\n      tag_123\n      jumpi\n      0x0100\n      dup1\n      dup4\n      sload\n      div\n      mul\n      dup4\n      mstore\n      swap2\n      0x20\n      add\n      swap2\n      jump(tag_122)\n    tag_123:\n      dup3\n      add\n      swap2\n      swap1\n      0x00\n      mstore\n      keccak256(0x00, 0x20)\n      swap1\n    tag_124:\n      dup2\n      sload\n      dup2\n      mstore\n      swap1\n      0x01\n      add\n      swap1\n      0x20\n      add\n      dup1\n      dup4\n      gt\n      tag_124\n      jumpi\n      dup3\n      swap1\n      sub\n      0x1f\n      and\n      dup3\n      add\n      swap2\n    tag_122:\n      pop\n      pop\n      pop\n      pop\n      0x03\n      dup4\n      add\n      sload\n      0x04\n      swap1\n      swap4\n      add\n      sload\n      swap2\n      swap3\n      0xff\n      and\n      swap2\n      swap1\n      pop\n      dup6\n      jump\t// out\n        /* \"MultiSigWallet.sol\":1999:2326  function revokeApproval(uint txIndex) external onlyOwner {... */\n    tag_64:\n        /* \"MultiSigWallet.sol\":583:593  msg.sender */\n      caller\n        /* \"MultiSigWallet.sol\":575:594  isOwner[msg.sender] */\n      0x00\n      swap1\n      dup2\n      mstore\n        /* \"MultiSigWallet.sol\":575:582  isOwner */\n      0x01\n        /* \"MultiSigWallet.sol\":575:594  isOwner[msg.sender] */\n      0x20\n      mstore\n      0x40\n      swap1\n      keccak256\n      sload\n      0xff\n      and\n        /* \"MultiSigWallet.sol\":567:611  require(isOwner[msg.sender], \"Not an owner\") */\n      tag_126\n      jumpi\n      mload(0x40)\n      shl(0xe5, 0x461bcd)\n      dup2\n      mstore\n      0x04\n      add\n      tag_78\n      swap1\n      tag_79\n      jump\t// in\n    tag_126:\n        /* \"MultiSigWallet.sol\":2067:2090  Transaction storage txn */\n      0x00\n        /* \"MultiSigWallet.sol\":2093:2105  transactions */\n      0x04\n        /* \"MultiSigWallet.sol\":2106:2113  txIndex */\n      dup3\n        /* \"MultiSigWallet.sol\":2093:2114  transactions[txIndex] */\n      dup2\n      sload\n      dup2\n      lt\n      tag_130\n      jumpi\n      tag_130\n      tag_83\n      jump\t// in\n    tag_130:\n      0x00\n      swap2\n      dup3\n      mstore\n      0x20\n      swap1\n      swap2\n      keccak256\n      0x05\n      swap1\n      swap2\n      mul\n      add\n        /* \"MultiSigWallet.sol\":2134:2146  txn.executed */\n      0x03\n      dup2\n      add\n      sload\n        /* \"MultiSigWallet.sol\":2093:2114  transactions[txIndex] */\n      swap1\n      swap2\n      pop\n        /* \"MultiSigWallet.sol\":2134:2146  txn.executed */\n      0xff\n      and\n        /* \"MultiSigWallet.sol\":2133:2146  !txn.executed */\n      iszero\n        /* \"MultiSigWallet.sol\":2125:2167  require(!txn.executed, \"Already executed\") */\n      tag_132\n      jumpi\n      mload(0x40)\n      shl(0xe5, 0x461bcd)\n      dup2\n      mstore\n      0x04\n      add\n      tag_78\n      swap1\n      tag_87\n      jump\t// in\n    tag_132:\n        /* \"MultiSigWallet.sol\":2186:2204  approvals[txIndex] */\n      0x00\n      dup3\n      dup2\n      mstore\n        /* \"MultiSigWallet.sol\":2186:2195  approvals */\n      0x05\n        /* \"MultiSigWallet.sol\":2186:2204  approvals[txIndex] */\n      0x20\n      swap1\n      dup2\n      mstore\n      0x40\n      dup1\n      dup4\n      keccak256\n        /* \"MultiSigWallet.sol\":2205:2215  msg.sender */\n      caller\n        /* \"MultiSigWallet.sol\":2186:2216  approvals[txIndex][msg.sender] */\n      dup5\n      mstore\n      swap1\n      swap2\n      mstore\n      swap1\n      keccak256\n      sload\n      0xff\n      and\n        /* \"MultiSigWallet.sol\":2178:2237  require(approvals[txIndex][msg.sender], \"Not yet approved\") */\n      tag_134\n      jumpi\n      mload(0x40)\n      shl(0xe5, 0x461bcd)\n      dup2\n      mstore\n        /* \"#utility.yul\":7509:7511   */\n      0x20\n        /* \"MultiSigWallet.sol\":2178:2237  require(approvals[txIndex][msg.sender], \"Not yet approved\") */\n      0x04\n      dup3\n      add\n        /* \"#utility.yul\":7491:7512   */\n      mstore\n        /* \"#utility.yul\":7548:7550   */\n      0x10\n        /* \"#utility.yul\":7528:7546   */\n      0x24\n      dup3\n      add\n        /* \"#utility.yul\":7521:7551   */\n      mstore\n      shl(0x82, 0x139bdd081e595d08185c1c1c9bdd9959)\n        /* \"#utility.yul\":7567:7585   */\n      0x44\n      dup3\n      add\n        /* \"#utility.yul\":7560:7606   */\n      mstore\n        /* \"#utility.yul\":7623:7641   */\n      0x64\n      add\n        /* \"MultiSigWallet.sol\":2178:2237  require(approvals[txIndex][msg.sender], \"Not yet approved\") */\n      tag_78\n        /* \"#utility.yul\":7307:7647   */\n      jump\n        /* \"MultiSigWallet.sol\":2178:2237  require(approvals[txIndex][msg.sender], \"Not yet approved\") */\n    tag_134:\n        /* \"MultiSigWallet.sol\":2283:2288  false */\n      0x00\n        /* \"MultiSigWallet.sol\":2250:2268  approvals[txIndex] */\n      dup3\n      dup2\n      mstore\n        /* \"MultiSigWallet.sol\":2250:2259  approvals */\n      0x05\n        /* \"MultiSigWallet.sol\":2250:2268  approvals[txIndex] */\n      0x20\n      swap1\n      dup2\n      mstore\n      0x40\n      dup1\n      dup4\n      keccak256\n        /* \"MultiSigWallet.sol\":2269:2279  msg.sender */\n      caller\n        /* \"MultiSigWallet.sol\":2250:2280  approvals[txIndex][msg.sender] */\n      dup5\n      mstore\n      swap1\n      swap2\n      mstore\n      dup2\n      keccak256\n        /* \"MultiSigWallet.sol\":2250:2288  approvals[txIndex][msg.sender] = false */\n      dup1\n      sload\n      not(0xff)\n      and\n      swap1\n      sstore\n        /* \"MultiSigWallet.sol\":2299:2316  txn.approvalCount */\n      0x04\n      dup3\n      add\n        /* \"MultiSigWallet.sol\":2299:2318  txn.approvalCount-- */\n      dup1\n      sload\n      swap2\n      tag_91\n      dup4\n      tag_138\n      jump\t// in\n        /* \"MultiSigWallet.sol\":1365:1652  function submitTransaction(address to, uint value, bytes calldata data) external onlyOwner {... */\n    tag_69:\n        /* \"MultiSigWallet.sol\":583:593  msg.sender */\n      caller\n        /* \"MultiSigWallet.sol\":575:594  isOwner[msg.sender] */\n      0x00\n      swap1\n      dup2\n      mstore\n        /* \"MultiSigWallet.sol\":575:582  isOwner */\n      0x01\n        /* \"MultiSigWallet.sol\":575:594  isOwner[msg.sender] */\n      0x20\n      mstore\n      0x40\n      swap1\n      keccak256\n      sload\n      0xff\n      and\n        /* \"MultiSigWallet.sol\":567:611  require(isOwner[msg.sender], \"Not an owner\") */\n      tag_140\n      jumpi\n      mload(0x40)\n      shl(0xe5, 0x461bcd)\n      dup2\n      mstore\n      0x04\n      add\n      tag_78\n      swap1\n      tag_79\n      jump\t// in\n    tag_140:\n        /* \"MultiSigWallet.sol\":1467:1479  transactions */\n      0x04\n        /* \"MultiSigWallet.sol\":1485:1643  Transaction({... */\n      mload(0x40)\n      dup1\n      0xa0\n      add\n      0x40\n      mstore\n      dup1\n        /* \"MultiSigWallet.sol\":1516:1518  to */\n      dup7\n      sub(shl(0xa0, 0x01), 0x01)\n        /* \"MultiSigWallet.sol\":1485:1643  Transaction({... */\n      and\n      dup2\n      mstore\n      0x20\n      add\n        /* \"MultiSigWallet.sol\":1540:1545  value */\n      dup6\n        /* \"MultiSigWallet.sol\":1485:1643  Transaction({... */\n      dup2\n      mstore\n      0x20\n      add\n        /* \"MultiSigWallet.sol\":1566:1570  data */\n      dup5\n      dup5\n        /* \"MultiSigWallet.sol\":1485:1643  Transaction({... */\n      dup1\n      dup1\n      0x1f\n      add\n      0x20\n      dup1\n      swap2\n      div\n      mul\n      0x20\n      add\n      mload(0x40)\n      swap1\n      dup2\n      add\n      0x40\n      mstore\n      dup1\n      swap4\n      swap3\n      swap2\n      swap1\n      dup2\n      dup2\n      mstore\n      0x20\n      add\n      dup4\n      dup4\n      dup1\n      dup3\n      dup5\n      calldatacopy\n      0x00\n      swap3\n      add\n      dup3\n      swap1\n      mstore\n      pop\n      swap4\n      dup6\n      mstore\n      pop\n      pop\n      pop\n      0x20\n      dup1\n      dup4\n      add\n      dup3\n      swap1\n      mstore\n      0x40\n      swap3\n      dup4\n      add\n      dup3\n      swap1\n      mstore\n        /* \"MultiSigWallet.sol\":1467:1644  transactions.push(Transaction({... */\n      dup5\n      sload\n        /* \"MultiSigWallet.sol\":1485:1643  Transaction({... */\n      0x01\n        /* \"MultiSigWallet.sol\":1467:1644  transactions.push(Transaction({... */\n      dup1\n      dup3\n      add\n      dup8\n      sstore\n      swap6\n      dup4\n      mstore\n      swap2\n      dup2\n      swap1\n      keccak256\n      dup5\n      mload\n      0x05\n      swap1\n      swap4\n      mul\n      add\n      dup1\n      sload\n      not(sub(shl(0xa0, 0x01), 0x01))\n      and\n      sub(shl(0xa0, 0x01), 0x01)\n      swap1\n      swap4\n      and\n      swap3\n      swap1\n      swap3\n      or\n      dup3\n      sstore\n      dup4\n      add\n      mload\n      swap4\n      dup2\n      add\n      swap4\n      swap1\n      swap4\n      sstore\n      dup2\n      add\n      mload\n      swap1\n      swap2\n      swap1\n      0x02\n      dup3\n      add\n      swap1\n      tag_144\n      swap1\n      dup3\n      tag_145\n      jump\t// in\n    tag_144:\n      pop\n      0x60\n      dup3\n      add\n      mload\n      0x03\n      dup3\n      add\n      dup1\n      sload\n      not(0xff)\n      and\n      swap2\n      iszero\n      iszero\n      swap2\n      swap1\n      swap2\n      or\n      swap1\n      sstore\n      0x80\n      swap1\n      swap2\n      add\n      mload\n      0x04\n      swap1\n      swap2\n      add\n      sstore\n      pop\n      pop\n      pop\n      pop\n        /* \"MultiSigWallet.sol\":1365:1652  function submitTransaction(address to, uint value, bytes calldata data) external onlyOwner {... */\n      jump\t// out\n        /* \"MultiSigWallet.sol\":2334:2744  function executeTransaction(uint txIndex) external onlyOwner {... */\n    tag_73:\n        /* \"MultiSigWallet.sol\":583:593  msg.sender */\n      caller\n        /* \"MultiSigWallet.sol\":575:594  isOwner[msg.sender] */\n      0x00\n      swap1\n      dup2\n      mstore\n        /* \"MultiSigWallet.sol\":575:582  isOwner */\n      0x01\n        /* \"MultiSigWallet.sol\":575:594  isOwner[msg.sender] */\n      0x20\n      mstore\n      0x40\n      swap1\n      keccak256\n      sload\n      0xff\n      and\n        /* \"MultiSigWallet.sol\":567:611  require(isOwner[msg.sender], \"Not an owner\") */\n      tag_147\n      jumpi\n      mload(0x40)\n      shl(0xe5, 0x461bcd)\n      dup2\n      mstore\n      0x04\n      add\n      tag_78\n      swap1\n      tag_79\n      jump\t// in\n    tag_147:\n        /* \"MultiSigWallet.sol\":2406:2429  Transaction storage txn */\n      0x00\n        /* \"MultiSigWallet.sol\":2432:2444  transactions */\n      0x04\n        /* \"MultiSigWallet.sol\":2445:2452  txIndex */\n      dup3\n        /* \"MultiSigWallet.sol\":2432:2453  transactions[txIndex] */\n      dup2\n      sload\n      dup2\n      lt\n      tag_151\n      jumpi\n      tag_151\n      tag_83\n      jump\t// in\n    tag_151:\n      0x00\n      swap2\n      dup3\n      mstore\n      0x20\n      swap1\n      swap2\n      keccak256\n      0x05\n      swap1\n      swap2\n      mul\n      add\n        /* \"MultiSigWallet.sol\":2473:2485  txn.executed */\n      0x03\n      dup2\n      add\n      sload\n        /* \"MultiSigWallet.sol\":2432:2453  transactions[txIndex] */\n      swap1\n      swap2\n      pop\n        /* \"MultiSigWallet.sol\":2473:2485  txn.executed */\n      0xff\n      and\n        /* \"MultiSigWallet.sol\":2472:2485  !txn.executed */\n      iszero\n        /* \"MultiSigWallet.sol\":2464:2506  require(!txn.executed, \"Already executed\") */\n      tag_153\n      jumpi\n      mload(0x40)\n      shl(0xe5, 0x461bcd)\n      dup2\n      mstore\n      0x04\n      add\n      tag_78\n      swap1\n      tag_87\n      jump\t// in\n    tag_153:\n        /* \"MultiSigWallet.sol\":2546:2563  requiredApprovals */\n      sload(0x02)\n        /* \"MultiSigWallet.sol\":2525:2528  txn */\n      dup2\n        /* \"MultiSigWallet.sol\":2525:2542  txn.approvalCount */\n      0x04\n      add\n      sload\n        /* \"MultiSigWallet.sol\":2525:2563  txn.approvalCount >= requiredApprovals */\n      lt\n      iszero\n        /* \"MultiSigWallet.sol\":2517:2588  require(txn.approvalCount >= requiredApprovals, \"Not enough approvals\") */\n      tag_155\n      jumpi\n      mload(0x40)\n      shl(0xe5, 0x461bcd)\n      dup2\n      mstore\n        /* \"#utility.yul\":10245:10247   */\n      0x20\n        /* \"MultiSigWallet.sol\":2517:2588  require(txn.approvalCount >= requiredApprovals, \"Not enough approvals\") */\n      0x04\n      dup3\n      add\n        /* \"#utility.yul\":10227:10248   */\n      mstore\n        /* \"#utility.yul\":10284:10286   */\n      0x14\n        /* \"#utility.yul\":10264:10282   */\n      0x24\n      dup3\n      add\n        /* \"#utility.yul\":10257:10287   */\n      mstore\n      shl(0x60, 0x4e6f7420656e6f75676820617070726f76616c73)\n        /* \"#utility.yul\":10303:10321   */\n      0x44\n      dup3\n      add\n        /* \"#utility.yul\":10296:10346   */\n      mstore\n        /* \"#utility.yul\":10363:10381   */\n      0x64\n      add\n        /* \"MultiSigWallet.sol\":2517:2588  require(txn.approvalCount >= requiredApprovals, \"Not enough approvals\") */\n      tag_78\n        /* \"#utility.yul\":10043:10387   */\n      jump\n        /* \"MultiSigWallet.sol\":2517:2588  require(txn.approvalCount >= requiredApprovals, \"Not enough approvals\") */\n    tag_155:\n        /* \"MultiSigWallet.sol\":2601:2613  txn.executed */\n      0x03\n      dup2\n      add\n        /* \"MultiSigWallet.sol\":2601:2620  txn.executed = true */\n      dup1\n      sload\n      not(0xff)\n      and\n        /* \"MultiSigWallet.sol\":2616:2620  true */\n      0x01\n        /* \"MultiSigWallet.sol\":2601:2620  txn.executed = true */\n      swap1\n      dup2\n      or\n      swap1\n      swap2\n      sstore\n        /* \"MultiSigWallet.sol\":2650:2656  txn.to */\n      dup2\n      sload\n        /* \"MultiSigWallet.sol\":2669:2678  txn.value */\n      swap1\n      dup3\n      add\n      sload\n        /* \"MultiSigWallet.sol\":2650:2689  txn.to.call{value: txn.value}(txn.data) */\n      mload(0x40)\n        /* \"MultiSigWallet.sol\":2601:2613  txn.executed */\n      0x00\n      swap3\n      sub(shl(0xa0, 0x01), 0x01)\n        /* \"MultiSigWallet.sol\":2650:2656  txn.to */\n      and\n      swap2\n        /* \"MultiSigWallet.sol\":2669:2678  txn.value */\n      swap1\n        /* \"MultiSigWallet.sol\":2650:2689  txn.to.call{value: txn.value}(txn.data) */\n      tag_158\n      swap1\n        /* \"MultiSigWallet.sol\":2680:2688  txn.data */\n      0x02\n      dup7\n      add\n      swap1\n        /* \"MultiSigWallet.sol\":2650:2689  txn.to.call{value: txn.value}(txn.data) */\n      tag_159\n      jump\t// in\n    tag_158:\n      0x00\n      mload(0x40)\n      dup1\n      dup4\n      sub\n      dup2\n      dup6\n      dup8\n      gas\n      call\n      swap3\n      pop\n      pop\n      pop\n      returndatasize\n      dup1\n      0x00\n      dup2\n      eq\n      tag_162\n      jumpi\n      mload(0x40)\n      swap2\n      pop\n      and(add(returndatasize, 0x3f), not(0x1f))\n      dup3\n      add\n      0x40\n      mstore\n      returndatasize\n      dup3\n      mstore\n      returndatasize\n      0x00\n      0x20\n      dup5\n      add\n      returndatacopy\n      jump(tag_161)\n    tag_162:\n      0x60\n      swap2\n      pop\n    tag_161:\n      pop\n        /* \"MultiSigWallet.sol\":2631:2689  (bool success, ) = txn.to.call{value: txn.value}(txn.data) */\n      pop\n      swap1\n      pop\n        /* \"MultiSigWallet.sol\":2708:2715  success */\n      dup1\n        /* \"MultiSigWallet.sol\":2700:2736  require(success, \"Execution failed\") */\n      tag_163\n      jumpi\n      mload(0x40)\n      shl(0xe5, 0x461bcd)\n      dup2\n      mstore\n        /* \"#utility.yul\":11394:11396   */\n      0x20\n        /* \"MultiSigWallet.sol\":2700:2736  require(success, \"Execution failed\") */\n      0x04\n      dup3\n      add\n        /* \"#utility.yul\":11376:11397   */\n      mstore\n        /* \"#utility.yul\":11433:11435   */\n      0x10\n        /* \"#utility.yul\":11413:11431   */\n      0x24\n      dup3\n      add\n        /* \"#utility.yul\":11406:11436   */\n      mstore\n      shl(0x82, 0x115e1958dd5d1a5bdb8819985a5b1959)\n        /* \"#utility.yul\":11452:11470   */\n      0x44\n      dup3\n      add\n        /* \"#utility.yul\":11445:11491   */\n      mstore\n        /* \"#utility.yul\":11508:11526   */\n      0x64\n      add\n        /* \"MultiSigWallet.sol\":2700:2736  require(success, \"Execution failed\") */\n      tag_78\n        /* \"#utility.yul\":11192:11532   */\n      jump\n        /* \"MultiSigWallet.sol\":2700:2736  require(success, \"Execution failed\") */\n    tag_163:\n        /* \"MultiSigWallet.sol\":2395:2744  {... */\n      pop\n      pop\n        /* \"MultiSigWallet.sol\":2334:2744  function executeTransaction(uint txIndex) external onlyOwner {... */\n      pop\n      jump\t// out\n        /* \"#utility.yul\":14:240   */\n    tag_20:\n        /* \"#utility.yul\":73:79   */\n      0x00\n        /* \"#utility.yul\":126:128   */\n      0x20\n        /* \"#utility.yul\":114:123   */\n      dup3\n        /* \"#utility.yul\":105:112   */\n      dup5\n        /* \"#utility.yul\":101:124   */\n      sub\n        /* \"#utility.yul\":97:129   */\n      slt\n        /* \"#utility.yul\":94:146   */\n      iszero\n      tag_174\n      jumpi\n        /* \"#utility.yul\":142:143   */\n      0x00\n        /* \"#utility.yul\":139:140   */\n      0x00\n        /* \"#utility.yul\":132:144   */\n      revert\n        /* \"#utility.yul\":94:146   */\n    tag_174:\n      pop\n        /* \"#utility.yul\":187:210   */\n      calldataload\n      swap2\n        /* \"#utility.yul\":14:240   */\n      swap1\n      pop\n      jump\t// out\n        /* \"#utility.yul\":645:818   */\n    tag_166:\n        /* \"#utility.yul\":713:733   */\n      dup1\n      calldataload\n      sub(shl(0xa0, 0x01), 0x01)\n        /* \"#utility.yul\":762:793   */\n      dup2\n      and\n        /* \"#utility.yul\":752:794   */\n      dup2\n      eq\n        /* \"#utility.yul\":742:812   */\n      tag_178\n      jumpi\n        /* \"#utility.yul\":808:809   */\n      0x00\n        /* \"#utility.yul\":805:806   */\n      0x00\n        /* \"#utility.yul\":798:810   */\n      revert\n        /* \"#utility.yul\":742:812   */\n    tag_178:\n        /* \"#utility.yul\":645:818   */\n      swap2\n      swap1\n      pop\n      jump\t// out\n        /* \"#utility.yul\":823:1009   */\n    tag_36:\n        /* \"#utility.yul\":882:888   */\n      0x00\n        /* \"#utility.yul\":935:937   */\n      0x20\n        /* \"#utility.yul\":923:932   */\n      dup3\n        /* \"#utility.yul\":914:921   */\n      dup5\n        /* \"#utility.yul\":910:933   */\n      sub\n        /* \"#utility.yul\":906:938   */\n      slt\n        /* \"#utility.yul\":903:955   */\n      iszero\n      tag_180\n      jumpi\n        /* \"#utility.yul\":951:952   */\n      0x00\n        /* \"#utility.yul\":948:949   */\n      0x00\n        /* \"#utility.yul\":941:953   */\n      revert\n        /* \"#utility.yul\":903:955   */\n    tag_180:\n        /* \"#utility.yul\":974:1003   */\n      tag_181\n        /* \"#utility.yul\":993:1002   */\n      dup3\n        /* \"#utility.yul\":974:1003   */\n      tag_166\n      jump\t// in\n    tag_181:\n        /* \"#utility.yul\":964:1003   */\n      swap4\n        /* \"#utility.yul\":823:1009   */\n      swap3\n      pop\n      pop\n      pop\n      jump\t// out\n        /* \"#utility.yul\":1014:1744   */\n    tag_42:\n        /* \"#utility.yul\":1109:1115   */\n      0x00\n        /* \"#utility.yul\":1117:1123   */\n      0x00\n        /* \"#utility.yul\":1125:1131   */\n      0x00\n        /* \"#utility.yul\":1178:1180   */\n      0x40\n        /* \"#utility.yul\":1166:1175   */\n      dup5\n        /* \"#utility.yul\":1157:1164   */\n      dup7\n        /* \"#utility.yul\":1153:1176   */\n      sub\n        /* \"#utility.yul\":1149:1181   */\n      slt\n        /* \"#utility.yul\":1146:1198   */\n      iszero\n      tag_183\n      jumpi\n        /* \"#utility.yul\":1194:1195   */\n      0x00\n        /* \"#utility.yul\":1191:1192   */\n      0x00\n        /* \"#utility.yul\":1184:1196   */\n      revert\n        /* \"#utility.yul\":1146:1198   */\n    tag_183:\n        /* \"#utility.yul\":1234:1243   */\n      dup4\n        /* \"#utility.yul\":1221:1244   */\n      calldataload\n        /* \"#utility.yul\":1267:1285   */\n      0xffffffffffffffff\n        /* \"#utility.yul\":1259:1265   */\n      dup2\n        /* \"#utility.yul\":1256:1286   */\n      gt\n        /* \"#utility.yul\":1253:1303   */\n      iszero\n      tag_184\n      jumpi\n        /* \"#utility.yul\":1299:1300   */\n      0x00\n        /* \"#utility.yul\":1296:1297   */\n      0x00\n        /* \"#utility.yul\":1289:1301   */\n      revert\n        /* \"#utility.yul\":1253:1303   */\n    tag_184:\n        /* \"#utility.yul\":1322:1344   */\n      dup5\n      add\n        /* \"#utility.yul\":1375:1379   */\n      0x1f\n        /* \"#utility.yul\":1367:1380   */\n      dup2\n      add\n        /* \"#utility.yul\":1363:1390   */\n      dup7\n      sgt\n        /* \"#utility.yul\":1353:1408   */\n      tag_185\n      jumpi\n        /* \"#utility.yul\":1404:1405   */\n      0x00\n        /* \"#utility.yul\":1401:1402   */\n      0x00\n        /* \"#utility.yul\":1394:1406   */\n      revert\n        /* \"#utility.yul\":1353:1408   */\n    tag_185:\n        /* \"#utility.yul\":1444:1446   */\n      dup1\n        /* \"#utility.yul\":1431:1447   */\n      calldataload\n        /* \"#utility.yul\":1470:1488   */\n      0xffffffffffffffff\n        /* \"#utility.yul\":1462:1468   */\n      dup2\n        /* \"#utility.yul\":1459:1489   */\n      gt\n        /* \"#utility.yul\":1456:1506   */\n      iszero\n      tag_186\n      jumpi\n        /* \"#utility.yul\":1502:1503   */\n      0x00\n        /* \"#utility.yul\":1499:1500   */\n      0x00\n        /* \"#utility.yul\":1492:1504   */\n      revert\n        /* \"#utility.yul\":1456:1506   */\n    tag_186:\n        /* \"#utility.yul\":1557:1564   */\n      dup7\n        /* \"#utility.yul\":1550:1554   */\n      0x20\n        /* \"#utility.yul\":1540:1546   */\n      dup3\n        /* \"#utility.yul\":1537:1538   */\n      0x05\n        /* \"#utility.yul\":1533:1547   */\n      shl\n        /* \"#utility.yul\":1529:1531   */\n      dup5\n        /* \"#utility.yul\":1525:1548   */\n      add\n        /* \"#utility.yul\":1521:1555   */\n      add\n        /* \"#utility.yul\":1518:1565   */\n      gt\n        /* \"#utility.yul\":1515:1582   */\n      iszero\n      tag_187\n      jumpi\n        /* \"#utility.yul\":1578:1579   */\n      0x00\n        /* \"#utility.yul\":1575:1576   */\n      0x00\n        /* \"#utility.yul\":1568:1580   */\n      revert\n        /* \"#utility.yul\":1515:1582   */\n    tag_187:\n        /* \"#utility.yul\":1609:1613   */\n      0x20\n        /* \"#utility.yul\":1601:1614   */\n      swap2\n      dup3\n      add\n      swap8\n        /* \"#utility.yul\":1633:1639   */\n      swap1\n      swap7\n      pop\n        /* \"#utility.yul\":1693:1713   */\n      swap5\n      add\n        /* \"#utility.yul\":1680:1714   */\n      calldataload\n      swap4\n        /* \"#utility.yul\":1014:1744   */\n      swap3\n      pop\n      pop\n      pop\n      jump\t// out\n        /* \"#utility.yul\":1931:2673   */\n    tag_54:\n        /* \"#utility.yul\":2213:2214   */\n      0x01\n        /* \"#utility.yul\":2209:2210   */\n      dup1\n        /* \"#utility.yul\":2204:2207   */\n      0xa0\n        /* \"#utility.yul\":2200:2211   */\n      shl\n        /* \"#utility.yul\":2196:2215   */\n      sub\n        /* \"#utility.yul\":2188:2194   */\n      dup7\n        /* \"#utility.yul\":2184:2216   */\n      and\n        /* \"#utility.yul\":2173:2182   */\n      dup2\n        /* \"#utility.yul\":2166:2217   */\n      mstore\n        /* \"#utility.yul\":2253:2259   */\n      dup5\n        /* \"#utility.yul\":2248:2250   */\n      0x20\n        /* \"#utility.yul\":2237:2246   */\n      dup3\n        /* \"#utility.yul\":2233:2251   */\n      add\n        /* \"#utility.yul\":2226:2260   */\n      mstore\n        /* \"#utility.yul\":2296:2299   */\n      0xa0\n        /* \"#utility.yul\":2291:2293   */\n      0x40\n        /* \"#utility.yul\":2280:2289   */\n      dup3\n        /* \"#utility.yul\":2276:2294   */\n      add\n        /* \"#utility.yul\":2269:2300   */\n      mstore\n        /* \"#utility.yul\":2147:2151   */\n      0x00\n        /* \"#utility.yul\":2329:2335   */\n      dup5\n        /* \"#utility.yul\":2323:2336   */\n      mload\n        /* \"#utility.yul\":2373:2379   */\n      dup1\n        /* \"#utility.yul\":2367:2370   */\n      0xa0\n        /* \"#utility.yul\":2356:2365   */\n      dup5\n        /* \"#utility.yul\":2352:2371   */\n      add\n        /* \"#utility.yul\":2345:2380   */\n      mstore\n        /* \"#utility.yul\":2433:2439   */\n      dup1\n        /* \"#utility.yul\":2428:2430   */\n      0x20\n        /* \"#utility.yul\":2420:2426   */\n      dup8\n        /* \"#utility.yul\":2416:2431   */\n      add\n        /* \"#utility.yul\":2410:2413   */\n      0xc0\n        /* \"#utility.yul\":2399:2408   */\n      dup6\n        /* \"#utility.yul\":2395:2414   */\n      add\n        /* \"#utility.yul\":2389:2440   */\n      mcopy\n        /* \"#utility.yul\":2490:2491   */\n      0x00\n        /* \"#utility.yul\":2484:2487   */\n      0xc0\n        /* \"#utility.yul\":2475:2481   */\n      dup3\n        /* \"#utility.yul\":2464:2473   */\n      dup6\n        /* \"#utility.yul\":2460:2482   */\n      add\n        /* \"#utility.yul\":2456:2488   */\n      add\n        /* \"#utility.yul\":2449:2492   */\n      mstore\n        /* \"#utility.yul\":2560:2563   */\n      0xc0\n        /* \"#utility.yul\":2553:2555   */\n      0x1f\n        /* \"#utility.yul\":2549:2556   */\n      not\n        /* \"#utility.yul\":2544:2546   */\n      0x1f\n        /* \"#utility.yul\":2536:2542   */\n      dup4\n        /* \"#utility.yul\":2532:2547   */\n      add\n        /* \"#utility.yul\":2528:2557   */\n      and\n        /* \"#utility.yul\":2517:2526   */\n      dup5\n        /* \"#utility.yul\":2513:2558   */\n      add\n        /* \"#utility.yul\":2509:2564   */\n      add\n        /* \"#utility.yul\":2501:2564   */\n      swap2\n      pop\n      pop\n        /* \"#utility.yul\":2614:2620   */\n      dup4\n        /* \"#utility.yul\":2607:2621   */\n      iszero\n        /* \"#utility.yul\":2600:2622   */\n      iszero\n        /* \"#utility.yul\":2595:2597   */\n      0x60\n        /* \"#utility.yul\":2584:2593   */\n      dup4\n        /* \"#utility.yul\":2580:2598   */\n      add\n        /* \"#utility.yul\":2573:2623   */\n      mstore\n        /* \"#utility.yul\":2660:2666   */\n      dup3\n        /* \"#utility.yul\":2654:2657   */\n      0x80\n        /* \"#utility.yul\":2643:2652   */\n      dup4\n        /* \"#utility.yul\":2639:2658   */\n      add\n        /* \"#utility.yul\":2632:2667   */\n      mstore\n        /* \"#utility.yul\":1931:2673   */\n      swap7\n      swap6\n      pop\n      pop\n      pop\n      pop\n      pop\n      pop\n      jump\t// out\n        /* \"#utility.yul\":2678:2978   */\n    tag_58:\n        /* \"#utility.yul\":2746:2752   */\n      0x00\n        /* \"#utility.yul\":2754:2760   */\n      0x00\n        /* \"#utility.yul\":2807:2809   */\n      0x40\n        /* \"#utility.yul\":2795:2804   */\n      dup4\n        /* \"#utility.yul\":2786:2793   */\n      dup6\n        /* \"#utility.yul\":2782:2805   */\n      sub\n        /* \"#utility.yul\":2778:2810   */\n      slt\n        /* \"#utility.yul\":2775:2827   */\n      iszero\n      tag_191\n      jumpi\n        /* \"#utility.yul\":2823:2824   */\n      0x00\n        /* \"#utility.yul\":2820:2821   */\n      0x00\n        /* \"#utility.yul\":2813:2825   */\n      revert\n        /* \"#utility.yul\":2775:2827   */\n    tag_191:\n        /* \"#utility.yul\":2868:2891   */\n      dup3\n      calldataload\n      swap2\n      pop\n        /* \"#utility.yul\":2934:2972   */\n      tag_192\n        /* \"#utility.yul\":2968:2970   */\n      0x20\n        /* \"#utility.yul\":2953:2971   */\n      dup5\n      add\n        /* \"#utility.yul\":2934:2972   */\n      tag_166\n      jump\t// in\n    tag_192:\n        /* \"#utility.yul\":2924:2972   */\n      swap1\n      pop\n        /* \"#utility.yul\":2678:2978   */\n      swap3\n      pop\n      swap3\n      swap1\n      pop\n      jump\t// out\n        /* \"#utility.yul\":2983:3757   */\n    tag_68:\n        /* \"#utility.yul\":3071:3077   */\n      0x00\n        /* \"#utility.yul\":3079:3085   */\n      0x00\n        /* \"#utility.yul\":3087:3093   */\n      0x00\n        /* \"#utility.yul\":3095:3101   */\n      0x00\n        /* \"#utility.yul\":3148:3150   */\n      0x60\n        /* \"#utility.yul\":3136:3145   */\n      dup6\n        /* \"#utility.yul\":3127:3134   */\n      dup8\n        /* \"#utility.yul\":3123:3146   */\n      sub\n        /* \"#utility.yul\":3119:3151   */\n      slt\n        /* \"#utility.yul\":3116:3168   */\n      iszero\n      tag_194\n      jumpi\n        /* \"#utility.yul\":3164:3165   */\n      0x00\n        /* \"#utility.yul\":3161:3162   */\n      0x00\n        /* \"#utility.yul\":3154:3166   */\n      revert\n        /* \"#utility.yul\":3116:3168   */\n    tag_194:\n        /* \"#utility.yul\":3187:3216   */\n      tag_195\n        /* \"#utility.yul\":3206:3215   */\n      dup6\n        /* \"#utility.yul\":3187:3216   */\n      tag_166\n      jump\t// in\n    tag_195:\n        /* \"#utility.yul\":3177:3216   */\n      swap4\n      pop\n        /* \"#utility.yul\":3285:3287   */\n      0x20\n        /* \"#utility.yul\":3270:3288   */\n      dup6\n      add\n        /* \"#utility.yul\":3257:3289   */\n      calldataload\n      swap3\n      pop\n        /* \"#utility.yul\":3364:3366   */\n      0x40\n        /* \"#utility.yul\":3349:3367   */\n      dup6\n      add\n        /* \"#utility.yul\":3336:3368   */\n      calldataload\n        /* \"#utility.yul\":3391:3409   */\n      0xffffffffffffffff\n        /* \"#utility.yul\":3380:3410   */\n      dup2\n      gt\n        /* \"#utility.yul\":3377:3427   */\n      iszero\n      tag_196\n      jumpi\n        /* \"#utility.yul\":3423:3424   */\n      0x00\n        /* \"#utility.yul\":3420:3421   */\n      0x00\n        /* \"#utility.yul\":3413:3425   */\n      revert\n        /* \"#utility.yul\":3377:3427   */\n    tag_196:\n        /* \"#utility.yul\":3446:3468   */\n      dup6\n      add\n        /* \"#utility.yul\":3499:3503   */\n      0x1f\n        /* \"#utility.yul\":3491:3504   */\n      dup2\n      add\n        /* \"#utility.yul\":3487:3514   */\n      dup8\n      sgt\n        /* \"#utility.yul\":3477:3532   */\n      tag_197\n      jumpi\n        /* \"#utility.yul\":3528:3529   */\n      0x00\n        /* \"#utility.yul\":3525:3526   */\n      0x00\n        /* \"#utility.yul\":3518:3530   */\n      revert\n        /* \"#utility.yul\":3477:3532   */\n    tag_197:\n        /* \"#utility.yul\":3568:3570   */\n      dup1\n        /* \"#utility.yul\":3555:3571   */\n      calldataload\n        /* \"#utility.yul\":3594:3612   */\n      0xffffffffffffffff\n        /* \"#utility.yul\":3586:3592   */\n      dup2\n        /* \"#utility.yul\":3583:3613   */\n      gt\n        /* \"#utility.yul\":3580:3630   */\n      iszero\n      tag_198\n      jumpi\n        /* \"#utility.yul\":3626:3627   */\n      0x00\n        /* \"#utility.yul\":3623:3624   */\n      0x00\n        /* \"#utility.yul\":3616:3628   */\n      revert\n        /* \"#utility.yul\":3580:3630   */\n    tag_198:\n        /* \"#utility.yul\":3671:3678   */\n      dup8\n        /* \"#utility.yul\":3666:3668   */\n      0x20\n        /* \"#utility.yul\":3657:3663   */\n      dup3\n        /* \"#utility.yul\":3653:3655   */\n      dup5\n        /* \"#utility.yul\":3649:3664   */\n      add\n        /* \"#utility.yul\":3645:3669   */\n      add\n        /* \"#utility.yul\":3642:3679   */\n      gt\n        /* \"#utility.yul\":3639:3696   */\n      iszero\n      tag_199\n      jumpi\n        /* \"#utility.yul\":3692:3693   */\n      0x00\n        /* \"#utility.yul\":3689:3690   */\n      0x00\n        /* \"#utility.yul\":3682:3694   */\n      revert\n        /* \"#utility.yul\":3639:3696   */\n    tag_199:\n        /* \"#utility.yul\":2983:3757   */\n      swap5\n      swap8\n      swap4\n      swap7\n      pop\n        /* \"#utility.yul\":3723:3725   */\n      0x20\n        /* \"#utility.yul\":3715:3726   */\n      add\n      swap5\n      pop\n      pop\n      pop\n        /* \"#utility.yul\":2983:3757   */\n      jump\t// out\n        /* \"#utility.yul\":3762:4098   */\n    tag_79:\n        /* \"#utility.yul\":3964:3966   */\n      0x20\n        /* \"#utility.yul\":3946:3967   */\n      dup1\n      dup3\n      mstore\n        /* \"#utility.yul\":4003:4005   */\n      0x0c\n        /* \"#utility.yul\":3983:4001   */\n      swap1\n      dup3\n      add\n        /* \"#utility.yul\":3976:4006   */\n      mstore\n      shl(0xa1, 0x2737ba1030b71037bbb732b9)\n        /* \"#utility.yul\":4037:4039   */\n      0x40\n        /* \"#utility.yul\":4022:4040   */\n      dup3\n      add\n        /* \"#utility.yul\":4015:4057   */\n      mstore\n        /* \"#utility.yul\":4089:4091   */\n      0x60\n        /* \"#utility.yul\":4074:4092   */\n      add\n      swap1\n        /* \"#utility.yul\":3762:4098   */\n      jump\t// out\n        /* \"#utility.yul\":4103:4230   */\n    tag_83:\n        /* \"#utility.yul\":4164:4174   */\n      0x4e487b71\n        /* \"#utility.yul\":4159:4162   */\n      0xe0\n        /* \"#utility.yul\":4155:4175   */\n      shl\n        /* \"#utility.yul\":4152:4153   */\n      0x00\n        /* \"#utility.yul\":4145:4176   */\n      mstore\n        /* \"#utility.yul\":4195:4199   */\n      0x32\n        /* \"#utility.yul\":4192:4193   */\n      0x04\n        /* \"#utility.yul\":4185:4200   */\n      mstore\n        /* \"#utility.yul\":4219:4223   */\n      0x24\n        /* \"#utility.yul\":4216:4217   */\n      0x00\n        /* \"#utility.yul\":4209:4224   */\n      revert\n        /* \"#utility.yul\":4235:4575   */\n    tag_87:\n        /* \"#utility.yul\":4437:4439   */\n      0x20\n        /* \"#utility.yul\":4419:4440   */\n      dup1\n      dup3\n      mstore\n        /* \"#utility.yul\":4476:4478   */\n      0x10\n        /* \"#utility.yul\":4456:4474   */\n      swap1\n      dup3\n      add\n        /* \"#utility.yul\":4449:4479   */\n      mstore\n      shl(0x82, 0x105b1c9958591e48195e1958dd5d1959)\n        /* \"#utility.yul\":4510:4512   */\n      0x40\n        /* \"#utility.yul\":4495:4513   */\n      dup3\n      add\n        /* \"#utility.yul\":4488:4534   */\n      mstore\n        /* \"#utility.yul\":4566:4568   */\n      0x60\n        /* \"#utility.yul\":4551:4569   */\n      add\n      swap1\n        /* \"#utility.yul\":4235:4575   */\n      jump\t// out\n        /* \"#utility.yul\":4925:5052   */\n    tag_167:\n        /* \"#utility.yul\":4986:4996   */\n      0x4e487b71\n        /* \"#utility.yul\":4981:4984   */\n      0xe0\n        /* \"#utility.yul\":4977:4997   */\n      shl\n        /* \"#utility.yul\":4974:4975   */\n      0x00\n        /* \"#utility.yul\":4967:4998   */\n      mstore\n        /* \"#utility.yul\":5017:5021   */\n      0x11\n        /* \"#utility.yul\":5014:5015   */\n      0x04\n        /* \"#utility.yul\":5007:5022   */\n      mstore\n        /* \"#utility.yul\":5041:5045   */\n      0x24\n        /* \"#utility.yul\":5038:5039   */\n      0x00\n        /* \"#utility.yul\":5031:5046   */\n      revert\n        /* \"#utility.yul\":5057:5192   */\n    tag_92:\n        /* \"#utility.yul\":5096:5099   */\n      0x00\n        /* \"#utility.yul\":5117:5134   */\n      0x01\n      dup3\n      add\n        /* \"#utility.yul\":5114:5157   */\n      tag_207\n      jumpi\n        /* \"#utility.yul\":5137:5155   */\n      tag_207\n      tag_167\n      jump\t// in\n    tag_207:\n      pop\n        /* \"#utility.yul\":5184:5185   */\n      0x01\n        /* \"#utility.yul\":5173:5186   */\n      add\n      swap1\n        /* \"#utility.yul\":5057:5192   */\n      jump\t// out\n        /* \"#utility.yul\":6922:7302   */\n    tag_120:\n        /* \"#utility.yul\":7001:7002   */\n      0x01\n        /* \"#utility.yul\":6997:7009   */\n      dup2\n      dup2\n      shr\n      swap1\n        /* \"#utility.yul\":7044:7056   */\n      dup3\n      and\n      dup1\n        /* \"#utility.yul\":7065:7126   */\n      tag_214\n      jumpi\n        /* \"#utility.yul\":7119:7123   */\n      0x7f\n        /* \"#utility.yul\":7111:7117   */\n      dup3\n        /* \"#utility.yul\":7107:7124   */\n      and\n        /* \"#utility.yul\":7097:7124   */\n      swap2\n      pop\n        /* \"#utility.yul\":7065:7126   */\n    tag_214:\n        /* \"#utility.yul\":7172:7174   */\n      0x20\n        /* \"#utility.yul\":7164:7170   */\n      dup3\n        /* \"#utility.yul\":7161:7175   */\n      lt\n        /* \"#utility.yul\":7141:7159   */\n      dup2\n        /* \"#utility.yul\":7138:7176   */\n      sub\n        /* \"#utility.yul\":7135:7296   */\n      tag_215\n      jumpi\n        /* \"#utility.yul\":7218:7228   */\n      0x4e487b71\n        /* \"#utility.yul\":7213:7216   */\n      0xe0\n        /* \"#utility.yul\":7209:7229   */\n      shl\n        /* \"#utility.yul\":7206:7207   */\n      0x00\n        /* \"#utility.yul\":7199:7230   */\n      mstore\n        /* \"#utility.yul\":7253:7257   */\n      0x22\n        /* \"#utility.yul\":7250:7251   */\n      0x04\n        /* \"#utility.yul\":7243:7258   */\n      mstore\n        /* \"#utility.yul\":7281:7285   */\n      0x24\n        /* \"#utility.yul\":7278:7279   */\n      0x00\n        /* \"#utility.yul\":7271:7286   */\n      revert\n        /* \"#utility.yul\":7135:7296   */\n    tag_215:\n      pop\n        /* \"#utility.yul\":6922:7302   */\n      swap2\n      swap1\n      pop\n      jump\t// out\n        /* \"#utility.yul\":7652:7788   */\n    tag_138:\n        /* \"#utility.yul\":7691:7694   */\n      0x00\n        /* \"#utility.yul\":7719:7724   */\n      dup2\n        /* \"#utility.yul\":7709:7748   */\n      tag_219\n      jumpi\n        /* \"#utility.yul\":7728:7746   */\n      tag_219\n      tag_167\n      jump\t// in\n    tag_219:\n      pop\n      not(0x00)\n        /* \"#utility.yul\":7764:7782   */\n      add\n      swap1\n        /* \"#utility.yul\":7652:7788   */\n      jump\t// out\n        /* \"#utility.yul\":7793:7920   */\n    tag_168:\n        /* \"#utility.yul\":7854:7864   */\n      0x4e487b71\n        /* \"#utility.yul\":7849:7852   */\n      0xe0\n        /* \"#utility.yul\":7845:7865   */\n      shl\n        /* \"#utility.yul\":7842:7843   */\n      0x00\n        /* \"#utility.yul\":7835:7866   */\n      mstore\n        /* \"#utility.yul\":7885:7889   */\n      0x41\n        /* \"#utility.yul\":7882:7883   */\n      0x04\n        /* \"#utility.yul\":7875:7890   */\n      mstore\n        /* \"#utility.yul\":7909:7913   */\n      0x24\n        /* \"#utility.yul\":7906:7907   */\n      0x00\n        /* \"#utility.yul\":7899:7914   */\n      revert\n        /* \"#utility.yul\":8050:8567   */\n    tag_170:\n        /* \"#utility.yul\":8151:8153   */\n      0x1f\n        /* \"#utility.yul\":8146:8149   */\n      dup3\n        /* \"#utility.yul\":8143:8154   */\n      gt\n        /* \"#utility.yul\":8140:8561   */\n      iszero\n      tag_163\n      jumpi\n        /* \"#utility.yul\":8187:8192   */\n      dup1\n        /* \"#utility.yul\":8184:8185   */\n      0x00\n        /* \"#utility.yul\":8177:8193   */\n      mstore\n        /* \"#utility.yul\":8231:8235   */\n      0x20\n        /* \"#utility.yul\":8228:8229   */\n      0x00\n        /* \"#utility.yul\":8218:8236   */\n      keccak256\n        /* \"#utility.yul\":8301:8303   */\n      0x1f\n        /* \"#utility.yul\":8289:8299   */\n      dup5\n        /* \"#utility.yul\":8285:8304   */\n      add\n        /* \"#utility.yul\":8282:8283   */\n      0x05\n        /* \"#utility.yul\":8278:8305   */\n      shr\n        /* \"#utility.yul\":8272:8276   */\n      dup2\n        /* \"#utility.yul\":8268:8306   */\n      add\n        /* \"#utility.yul\":8337:8341   */\n      0x20\n        /* \"#utility.yul\":8325:8335   */\n      dup6\n        /* \"#utility.yul\":8322:8342   */\n      lt\n        /* \"#utility.yul\":8319:8366   */\n      iszero\n      tag_224\n      jumpi\n      pop\n        /* \"#utility.yul\":8360:8364   */\n      dup1\n        /* \"#utility.yul\":8319:8366   */\n    tag_224:\n        /* \"#utility.yul\":8415:8417   */\n      0x1f\n        /* \"#utility.yul\":8410:8413   */\n      dup5\n        /* \"#utility.yul\":8406:8418   */\n      add\n        /* \"#utility.yul\":8403:8404   */\n      0x05\n        /* \"#utility.yul\":8399:8419   */\n      shr\n        /* \"#utility.yul\":8393:8397   */\n      dup3\n        /* \"#utility.yul\":8389:8420   */\n      add\n        /* \"#utility.yul\":8379:8420   */\n      swap2\n      pop\n        /* \"#utility.yul\":8470:8551   */\n    tag_225:\n        /* \"#utility.yul\":8488:8490   */\n      dup2\n        /* \"#utility.yul\":8481:8486   */\n      dup2\n        /* \"#utility.yul\":8478:8491   */\n      lt\n        /* \"#utility.yul\":8470:8551   */\n      iszero\n      tag_227\n      jumpi\n        /* \"#utility.yul\":8547:8548   */\n      0x00\n        /* \"#utility.yul\":8533:8549   */\n      dup2\n      sstore\n        /* \"#utility.yul\":8514:8515   */\n      0x01\n        /* \"#utility.yul\":8503:8516   */\n      add\n        /* \"#utility.yul\":8470:8551   */\n      jump(tag_225)\n    tag_227:\n        /* \"#utility.yul\":8474:8477   */\n      pop\n      pop\n        /* \"#utility.yul\":8050:8567   */\n      pop\n      pop\n      pop\n      jump\t// out\n        /* \"#utility.yul\":8743:10038   */\n    tag_145:\n        /* \"#utility.yul\":8867:8870   */\n      dup2\n        /* \"#utility.yul\":8861:8871   */\n      mload\n        /* \"#utility.yul\":8894:8912   */\n      0xffffffffffffffff\n        /* \"#utility.yul\":8886:8892   */\n      dup2\n        /* \"#utility.yul\":8883:8913   */\n      gt\n        /* \"#utility.yul\":8880:8936   */\n      iszero\n      tag_231\n      jumpi\n        /* \"#utility.yul\":8916:8934   */\n      tag_231\n      tag_168\n      jump\t// in\n    tag_231:\n        /* \"#utility.yul\":8945:9041   */\n      tag_232\n        /* \"#utility.yul\":9034:9040   */\n      dup2\n        /* \"#utility.yul\":8994:9032   */\n      tag_233\n        /* \"#utility.yul\":9026:9030   */\n      dup5\n        /* \"#utility.yul\":9020:9031   */\n      sload\n        /* \"#utility.yul\":8994:9032   */\n      tag_120\n      jump\t// in\n    tag_233:\n        /* \"#utility.yul\":8988:8992   */\n      dup5\n        /* \"#utility.yul\":8945:9041   */\n      tag_170\n      jump\t// in\n    tag_232:\n        /* \"#utility.yul\":9090:9094   */\n      0x20\n        /* \"#utility.yul\":9121:9123   */\n      0x1f\n        /* \"#utility.yul\":9110:9124   */\n      dup3\n      gt\n        /* \"#utility.yul\":9138:9139   */\n      0x01\n        /* \"#utility.yul\":9133:9781   */\n      dup2\n      eq\n      tag_235\n      jumpi\n        /* \"#utility.yul\":9825:9826   */\n      0x00\n        /* \"#utility.yul\":9842:9848   */\n      dup4\n        /* \"#utility.yul\":9839:9928   */\n      iszero\n      tag_236\n      jumpi\n      pop\n        /* \"#utility.yul\":9894:9913   */\n      dup5\n      dup3\n      add\n        /* \"#utility.yul\":9888:9914   */\n      mload\n        /* \"#utility.yul\":9839:9928   */\n    tag_236:\n      not(0x00)\n        /* \"#utility.yul\":8700:8701   */\n      0x03\n        /* \"#utility.yul\":8696:8707   */\n      dup6\n      swap1\n      shl\n        /* \"#utility.yul\":8692:8716   */\n      shr\n        /* \"#utility.yul\":8688:8717   */\n      not\n        /* \"#utility.yul\":8678:8718   */\n      and\n        /* \"#utility.yul\":8724:8725   */\n      0x01\n        /* \"#utility.yul\":8720:8731   */\n      dup5\n      swap1\n      shl\n        /* \"#utility.yul\":8675:8732   */\n      or\n        /* \"#utility.yul\":9941:10022   */\n      dup5\n      sstore\n        /* \"#utility.yul\":9103:10032   */\n      jump(tag_227)\n        /* \"#utility.yul\":9133:9781   */\n    tag_235:\n        /* \"#utility.yul\":7997:7998   */\n      0x00\n        /* \"#utility.yul\":7990:8004   */\n      dup5\n      dup2\n      mstore\n        /* \"#utility.yul\":8034:8038   */\n      0x20\n        /* \"#utility.yul\":8021:8039   */\n      dup2\n      keccak256\n      not(0x1f)\n        /* \"#utility.yul\":9169:9189   */\n      dup6\n      and\n      swap2\n        /* \"#utility.yul\":9286:9508   */\n    tag_239:\n        /* \"#utility.yul\":9300:9307   */\n      dup3\n        /* \"#utility.yul\":9297:9298   */\n      dup2\n        /* \"#utility.yul\":9294:9308   */\n      lt\n        /* \"#utility.yul\":9286:9508   */\n      iszero\n      tag_241\n      jumpi\n        /* \"#utility.yul\":9382:9401   */\n      dup8\n      dup6\n      add\n        /* \"#utility.yul\":9376:9402   */\n      mload\n        /* \"#utility.yul\":9361:9403   */\n      dup3\n      sstore\n        /* \"#utility.yul\":9489:9493   */\n      0x20\n        /* \"#utility.yul\":9474:9494   */\n      swap5\n      dup6\n      add\n      swap5\n        /* \"#utility.yul\":9442:9443   */\n      0x01\n        /* \"#utility.yul\":9430:9444   */\n      swap1\n      swap3\n      add\n      swap2\n        /* \"#utility.yul\":9316:9328   */\n      add\n        /* \"#utility.yul\":9286:9508   */\n      jump(tag_239)\n    tag_241:\n        /* \"#utility.yul\":9290:9293   */\n      pop\n        /* \"#utility.yul\":9536:9542   */\n      dup5\n        /* \"#utility.yul\":9527:9534   */\n      dup3\n        /* \"#utility.yul\":9524:9543   */\n      lt\n        /* \"#utility.yul\":9521:9722   */\n      iszero\n      tag_242\n      jumpi\n        /* \"#utility.yul\":9597:9616   */\n      dup7\n      dup5\n      add\n        /* \"#utility.yul\":9591:9617   */\n      mload\n      not(0x00)\n        /* \"#utility.yul\":9680:9681   */\n      0x03\n        /* \"#utility.yul\":9676:9690   */\n      dup8\n      swap1\n      shl\n        /* \"#utility.yul\":9692:9695   */\n      0xf8\n        /* \"#utility.yul\":9672:9696   */\n      and\n        /* \"#utility.yul\":9668:9705   */\n      shr\n        /* \"#utility.yul\":9664:9706   */\n      not\n        /* \"#utility.yul\":9649:9707   */\n      and\n        /* \"#utility.yul\":9634:9708   */\n      dup2\n      sstore\n        /* \"#utility.yul\":9521:9722   */\n    tag_242:\n      pop\n      pop\n      pop\n      pop\n        /* \"#utility.yul\":9768:9769   */\n      0x01\n        /* \"#utility.yul\":9752:9766   */\n      swap1\n      dup2\n      shl\n        /* \"#utility.yul\":9748:9770   */\n      add\n        /* \"#utility.yul\":9735:9771   */\n      swap1\n      sstore\n      pop\n        /* \"#utility.yul\":8743:10038   */\n      jump\t// out\n        /* \"#utility.yul\":10392:11187   */\n    tag_159:\n        /* \"#utility.yul\":10518:10521   */\n      0x00\n        /* \"#utility.yul\":10547:10548   */\n      0x00\n        /* \"#utility.yul\":10580:10586   */\n      dup4\n        /* \"#utility.yul\":10574:10587   */\n      sload\n        /* \"#utility.yul\":10610:10646   */\n      tag_245\n        /* \"#utility.yul\":10636:10645   */\n      dup2\n        /* \"#utility.yul\":10610:10646   */\n      tag_120\n      jump\t// in\n    tag_245:\n        /* \"#utility.yul\":10677:10678   */\n      0x01\n        /* \"#utility.yul\":10662:10679   */\n      dup3\n      and\n        /* \"#utility.yul\":10688:10821   */\n      dup1\n      iszero\n      tag_247\n      jumpi\n        /* \"#utility.yul\":10835:10836   */\n      0x01\n        /* \"#utility.yul\":10830:11162   */\n      dup2\n      eq\n      tag_248\n      jumpi\n        /* \"#utility.yul\":10655:11162   */\n      jump(tag_246)\n        /* \"#utility.yul\":10688:10821   */\n    tag_247:\n      not(0xff)\n        /* \"#utility.yul\":10721:10745   */\n      dup4\n      and\n        /* \"#utility.yul\":10709:10746   */\n      dup7\n      mstore\n        /* \"#utility.yul\":10794:10808   */\n      dup2\n      iszero\n        /* \"#utility.yul\":10787:10809   */\n      iszero\n        /* \"#utility.yul\":10775:10810   */\n      dup3\n      mul\n        /* \"#utility.yul\":10766:10811   */\n      dup7\n      add\n      swap4\n      pop\n        /* \"#utility.yul\":10688:10821   */\n      jump(tag_246)\n        /* \"#utility.yul\":10830:11162   */\n    tag_248:\n        /* \"#utility.yul\":10861:10867   */\n      dup7\n        /* \"#utility.yul\":10858:10859   */\n      0x00\n        /* \"#utility.yul\":10851:10868   */\n      mstore\n        /* \"#utility.yul\":10909:10913   */\n      0x20\n        /* \"#utility.yul\":10906:10907   */\n      0x00\n        /* \"#utility.yul\":10896:10914   */\n      keccak256\n        /* \"#utility.yul\":10936:10937   */\n      0x00\n        /* \"#utility.yul\":10950:11116   */\n    tag_249:\n        /* \"#utility.yul\":10964:10970   */\n      dup4\n        /* \"#utility.yul\":10961:10962   */\n      dup2\n        /* \"#utility.yul\":10958:10971   */\n      lt\n        /* \"#utility.yul\":10950:11116   */\n      iszero\n      tag_251\n      jumpi\n        /* \"#utility.yul\":11044:11058   */\n      dup2\n      sload\n        /* \"#utility.yul\":11031:11042   */\n      dup9\n      dup3\n      add\n        /* \"#utility.yul\":11024:11059   */\n      mstore\n        /* \"#utility.yul\":11100:11101   */\n      0x01\n        /* \"#utility.yul\":11087:11102   */\n      swap1\n      swap2\n      add\n      swap1\n        /* \"#utility.yul\":10986:10990   */\n      0x20\n        /* \"#utility.yul\":10979:10991   */\n      add\n        /* \"#utility.yul\":10950:11116   */\n      jump(tag_249)\n    tag_251:\n        /* \"#utility.yul\":10954:10957   */\n      pop\n      pop\n        /* \"#utility.yul\":11145:11151   */\n      dup2\n        /* \"#utility.yul\":11140:11143   */\n      dup7\n        /* \"#utility.yul\":11136:11152   */\n      add\n        /* \"#utility.yul\":11129:11152   */\n      swap4\n      pop\n        /* \"#utility.yul\":10655:11162   */\n    tag_246:\n      pop\n        /* \"#utility.yul\":11178:11181   */\n      swap2\n      swap6\n        /* \"#utility.yul\":10392:11187   */\n      swap5\n      pop\n      pop\n      pop\n      pop\n      pop\n      jump\t// out\n\n    auxdata: 0xa26469706673582212207441e89ce8c602f03cbe7ccb6ce00759e743397b5256fbb3a270173082444c2f64736f6c634300081e0033\n}\n",
				"bytecode": {
					"linkReferences": {},
					"object": "6080604052348015600e575f5ffd5b50610eb28061001c5f395ff3fe60806040526004361061009d575f3560e01c806399c1aadc1161006257806399c1aadc1461017b5780639ace38c21461019e578063ab2850da146101ce578063b1e130fc14610207578063c642747414610226578063ee22610b14610245575f5ffd5b8063025e7c27146100a8578063158ef93e146100e4578063242232d11461010d5780632f54bf6e1461012e57806360b5bb3f1461015c575f5ffd5b366100a457005b5f5ffd5b3480156100b3575f5ffd5b506100c76100c2366004610a45565b610264565b6040516001600160a01b0390911681526020015b60405180910390f35b3480156100ef575f5ffd5b506003546100fd9060ff1681565b60405190151581526020016100db565b348015610118575f5ffd5b5061012c610127366004610a45565b61028b565b005b348015610139575f5ffd5b506100fd610148366004610a77565b60016020525f908152604090205460ff1681565b348015610167575f5ffd5b5061012c610176366004610a97565b6103a5565b348015610186575f5ffd5b5061019060025481565b6040519081526020016100db565b3480156101a9575f5ffd5b506101bd6101b8366004610a45565b6105d2565b6040516100db959493929190610b0c565b3480156101d9575f5ffd5b506100fd6101e8366004610b67565b600560209081525f928352604080842090915290825290205460ff1681565b348015610212575f5ffd5b5061012c610221366004610a45565b6106a7565b348015610231575f5ffd5b5061012c610240366004610b91565b6107ab565b348015610250575f5ffd5b5061012c61025f366004610a45565b6108c1565b5f8181548110610272575f80fd5b5f918252602090912001546001600160a01b0316905081565b335f9081526001602052604090205460ff166102c25760405162461bcd60e51b81526004016102b990610c14565b60405180910390fd5b5f600482815481106102d6576102d6610c3a565b5f9182526020909120600590910201600381015490915060ff161561030d5760405162461bcd60e51b81526004016102b990610c4e565b5f82815260056020908152604080832033845290915290205460ff16156103695760405162461bcd60e51b815260206004820152601060248201526f105b1c9958591e48185c1c1c9bdd995960821b60448201526064016102b9565b5f8281526005602090815260408083203384529091528120805460ff191660011790556004820180549161039c83610c8c565b91905055505050565b60035460ff16156103ee5760405162461bcd60e51b8152602060048201526013602482015272105b1c9958591e481a5b9a5d1a585b1a5e9959606a1b60448201526064016102b9565b816104275760405162461bcd60e51b81526020600482015260096024820152684e6f206f776e65727360b81b60448201526064016102b9565b5f811180156104365750818111155b6104825760405162461bcd60e51b815260206004820152601a60248201527f496e76616c696420726571756972656420617070726f76616c7300000000000060448201526064016102b9565b5f5b828110156105bd575f84848381811061049f5761049f610c3a565b90506020020160208101906104b49190610a77565b90506001600160a01b0381166104fb5760405162461bcd60e51b815260206004820152600c60248201526b5a65726f206164647265737360a01b60448201526064016102b9565b6001600160a01b0381165f9081526001602052604090205460ff16156105555760405162461bcd60e51b815260206004820152600f60248201526e223ab83634b1b0ba329037bbb732b960891b60448201526064016102b9565b6001600160a01b03165f8181526001602081905260408220805460ff191682179055815480820183559180527f290decd9548b62a8d60345a988386fc84ba6bc95484008f6362f93160ef3e56390910180546001600160a01b03191690921790915501610484565b5060025550506003805460ff19166001179055565b600481815481106105e1575f80fd5b5f9182526020909120600590910201805460018201546002830180546001600160a01b03909316945090929161061690610ca4565b80601f016020809104026020016040519081016040528092919081815260200182805461064290610ca4565b801561068d5780601f106106645761010080835404028352916020019161068d565b820191905f5260205f20905b81548152906001019060200180831161067057829003601f168201915b505050506003830154600490930154919260ff1691905085565b335f9081526001602052604090205460ff166106d55760405162461bcd60e51b81526004016102b990610c14565b5f600482815481106106e9576106e9610c3a565b5f9182526020909120600590910201600381015490915060ff16156107205760405162461bcd60e51b81526004016102b990610c4e565b5f82815260056020908152604080832033845290915290205460ff1661077b5760405162461bcd60e51b815260206004820152601060248201526f139bdd081e595d08185c1c1c9bdd995960821b60448201526064016102b9565b5f8281526005602090815260408083203384529091528120805460ff191690556004820180549161039c83610cdc565b335f9081526001602052604090205460ff166107d95760405162461bcd60e51b81526004016102b990610c14565b60046040518060a00160405280866001600160a01b0316815260200185815260200184848080601f0160208091040260200160405190810160405280939291908181526020018383808284375f9201829052509385525050506020808301829052604092830182905284546001808201875595835291819020845160059093020180546001600160a01b0319166001600160a01b039093169290921782558301519381019390935581015190919060028201906108969082610d50565b50606082015160038201805460ff191691151591909117905560809091015160049091015550505050565b335f9081526001602052604090205460ff166108ef5760405162461bcd60e51b81526004016102b990610c14565b5f6004828154811061090357610903610c3a565b5f9182526020909120600590910201600381015490915060ff161561093a5760405162461bcd60e51b81526004016102b990610c4e565b600254816004015410156109875760405162461bcd60e51b81526020600482015260146024820152734e6f7420656e6f75676820617070726f76616c7360601b60448201526064016102b9565b60038101805460ff191660019081179091558154908201546040515f926001600160a01b031691906109bd906002860190610e0b565b5f6040518083038185875af1925050503d805f81146109f7576040519150601f19603f3d011682016040523d82523d5f602084013e6109fc565b606091505b5050905080610a405760405162461bcd60e51b815260206004820152601060248201526f115e1958dd5d1a5bdb8819985a5b195960821b60448201526064016102b9565b505050565b5f60208284031215610a55575f5ffd5b5035919050565b80356001600160a01b0381168114610a72575f5ffd5b919050565b5f60208284031215610a87575f5ffd5b610a9082610a5c565b9392505050565b5f5f5f60408486031215610aa9575f5ffd5b833567ffffffffffffffff811115610abf575f5ffd5b8401601f81018613610acf575f5ffd5b803567ffffffffffffffff811115610ae5575f5ffd5b8660208260051b8401011115610af9575f5ffd5b6020918201979096509401359392505050565b60018060a01b038616815284602082015260a060408201525f84518060a0840152806020870160c085015e5f60c0828501015260c0601f19601f83011684010191505083151560608301528260808301529695505050505050565b5f5f60408385031215610b78575f5ffd5b82359150610b8860208401610a5c565b90509250929050565b5f5f5f5f60608587031215610ba4575f5ffd5b610bad85610a5c565b935060208501359250604085013567ffffffffffffffff811115610bcf575f5ffd5b8501601f81018713610bdf575f5ffd5b803567ffffffffffffffff811115610bf5575f5ffd5b876020828401011115610c06575f5ffd5b949793965060200194505050565b6020808252600c908201526b2737ba1030b71037bbb732b960a11b604082015260600190565b634e487b7160e01b5f52603260045260245ffd5b60208082526010908201526f105b1c9958591e48195e1958dd5d195960821b604082015260600190565b634e487b7160e01b5f52601160045260245ffd5b5f60018201610c9d57610c9d610c78565b5060010190565b600181811c90821680610cb857607f821691505b602082108103610cd657634e487b7160e01b5f52602260045260245ffd5b50919050565b5f81610cea57610cea610c78565b505f190190565b634e487b7160e01b5f52604160045260245ffd5b601f821115610a4057805f5260205f20601f840160051c81016020851015610d2a5750805b601f840160051c820191505b81811015610d49575f8155600101610d36565b5050505050565b815167ffffffffffffffff811115610d6a57610d6a610cf1565b610d7e81610d788454610ca4565b84610d05565b6020601f821160018114610db0575f8315610d995750848201515b5f19600385901b1c1916600184901b178455610d49565b5f84815260208120601f198516915b82811015610ddf5787850151825560209485019460019092019101610dbf565b5084821015610dfc57868401515f19600387901b60f8161c191681555b50505050600190811b01905550565b5f5f8354610e1881610ca4565b600182168015610e2f5760018114610e4457610e71565b60ff1983168652811515820286019350610e71565b865f5260205f205f5b83811015610e6957815488820152600190910190602001610e4d565b505081860193505b50919594505050505056fea26469706673582212207441e89ce8c602f03cbe7ccb6ce00759e743397b5256fbb3a270173082444c2f64736f6c634300081e0033",
					"opcodes": "PUSH1 0x80 PUSH1 0x40 MSTORE CALLVALUE DUP1 ISZERO PUSH1 0xE JUMPI PUSH0 PUSH0 REVERT JUMPDEST POP PUSH2 0xEB2 DUP1 PUSH2 0x1C PUSH0 CODECOPY PUSH0 RETURN INVALID PUSH1 0x80 PUSH1 0x40 MSTORE PUSH1 0x4 CALLDATASIZE LT PUSH2 0x9D JUMPI PUSH0 CALLDATALOAD PUSH1 0xE0 SHR DUP1 PUSH4 0x99C1AADC GT PUSH2 0x62 JUMPI DUP1 PUSH4 0x99C1AADC EQ PUSH2 0x17B JUMPI DUP1 PUSH4 0x9ACE38C2 EQ PUSH2 0x19E JUMPI DUP1 PUSH4 0xAB2850DA EQ PUSH2 0x1CE JUMPI DUP1 PUSH4 0xB1E130FC EQ PUSH2 0x207 JUMPI DUP1 PUSH4 0xC6427474 EQ PUSH2 0x226 JUMPI DUP1 PUSH4 0xEE22610B EQ PUSH2 0x245 JUMPI PUSH0 PUSH0 REVERT JUMPDEST DUP1 PUSH4 0x25E7C27 EQ PUSH2 0xA8 JUMPI DUP1 PUSH4 0x158EF93E EQ PUSH2 0xE4 JUMPI DUP1 PUSH4 0x242232D1 EQ PUSH2 0x10D JUMPI DUP1 PUSH4 0x2F54BF6E EQ PUSH2 0x12E JUMPI DUP1 PUSH4 0x60B5BB3F EQ PUSH2 0x15C JUMPI PUSH0 PUSH0 REVERT JUMPDEST CALLDATASIZE PUSH2 0xA4 JUMPI STOP JUMPDEST PUSH0 PUSH0 REVERT JUMPDEST CALLVALUE DUP1 ISZERO PUSH2 0xB3 JUMPI PUSH0 PUSH0 REVERT JUMPDEST POP PUSH2 0xC7 PUSH2 0xC2 CALLDATASIZE PUSH1 0x4 PUSH2 0xA45 JUMP JUMPDEST PUSH2 0x264 JUMP JUMPDEST PUSH1 0x40 MLOAD PUSH1 0x1 PUSH1 0x1 PUSH1 0xA0 SHL SUB SWAP1 SWAP2 AND DUP2 MSTORE PUSH1 0x20 ADD JUMPDEST PUSH1 0x40 MLOAD DUP1 SWAP2 SUB SWAP1 RETURN JUMPDEST CALLVALUE DUP1 ISZERO PUSH2 0xEF JUMPI PUSH0 PUSH0 REVERT JUMPDEST POP PUSH1 0x3 SLOAD PUSH2 0xFD SWAP1 PUSH1 0xFF AND DUP2 JUMP JUMPDEST PUSH1 0x40 MLOAD SWAP1 ISZERO ISZERO DUP2 MSTORE PUSH1 0x20 ADD PUSH2 0xDB JUMP JUMPDEST CALLVALUE DUP1 ISZERO PUSH2 0x118 JUMPI PUSH0 PUSH0 REVERT JUMPDEST POP PUSH2 0x12C PUSH2 0x127 CALLDATASIZE PUSH1 0x4 PUSH2 0xA45 JUMP JUMPDEST PUSH2 0x28B JUMP JUMPDEST STOP JUMPDEST CALLVALUE DUP1 ISZERO PUSH2 0x139 JUMPI PUSH0 PUSH0 REVERT JUMPDEST POP PUSH2 0xFD PUSH2 0x148 CALLDATASIZE PUSH1 0x4 PUSH2 0xA77 JUMP JUMPDEST PUSH1 0x1 PUSH1 0x20 MSTORE PUSH0 SWAP1 DUP2 MSTORE PUSH1 0x40 SWAP1 KECCAK256 SLOAD PUSH1 0xFF AND DUP2 JUMP JUMPDEST CALLVALUE DUP1 ISZERO PUSH2 0x167 JUMPI PUSH0 PUSH0 REVERT JUMPDEST POP PUSH2 0x12C PUSH2 0x176 CALLDATASIZE PUSH1 0x4 PUSH2 0xA97 JUMP JUMPDEST PUSH2 0x3A5 JUMP JUMPDEST CALLVALUE DUP1 ISZERO PUSH2 0x186 JUMPI PUSH0 PUSH0 REVERT JUMPDEST POP PUSH2 0x190 PUSH1 0x2 SLOAD DUP2 JUMP JUMPDEST PUSH1 0x40 MLOAD SWAP1 DUP2 MSTORE PUSH1 0x20 ADD PUSH2 0xDB JUMP JUMPDEST CALLVALUE DUP1 ISZERO PUSH2 0x1A9 JUMPI PUSH0 PUSH0 REVERT JUMPDEST POP PUSH2 0x1BD PUSH2 0x1B8 CALLDATASIZE PUSH1 0x4 PUSH2 0xA45 JUMP JUMPDEST PUSH2 0x5D2 JUMP JUMPDEST PUSH1 0x40 MLOAD PUSH2 0xDB SWAP6 SWAP5 SWAP4 SWAP3 SWAP2 SWAP1 PUSH2 0xB0C JUMP JUMPDEST CALLVALUE DUP1 ISZERO PUSH2 0x1D9 JUMPI PUSH0 PUSH0 REVERT JUMPDEST POP PUSH2 0xFD PUSH2 0x1E8 CALLDATASIZE PUSH1 0x4 PUSH2 0xB67 JUMP JUMPDEST PUSH1 0x5 PUSH1 0x20 SWAP1 DUP2 MSTORE PUSH0 SWAP3 DUP4 MSTORE PUSH1 0x40 DUP1 DUP5 KECCAK256 SWAP1 SWAP2 MSTORE SWAP1 DUP3 MSTORE SWAP1 KECCAK256 SLOAD PUSH1 0xFF AND DUP2 JUMP JUMPDEST CALLVALUE DUP1 ISZERO PUSH2 0x212 JUMPI PUSH0 PUSH0 REVERT JUMPDEST POP PUSH2 0x12C PUSH2 0x221 CALLDATASIZE PUSH1 0x4 PUSH2 0xA45 JUMP JUMPDEST PUSH2 0x6A7 JUMP JUMPDEST CALLVALUE DUP1 ISZERO PUSH2 0x231 JUMPI PUSH0 PUSH0 REVERT JUMPDEST POP PUSH2 0x12C PUSH2 0x240 CALLDATASIZE PUSH1 0x4 PUSH2 0xB91 JUMP JUMPDEST PUSH2 0x7AB JUMP JUMPDEST CALLVALUE DUP1 ISZERO PUSH2 0x250 JUMPI PUSH0 PUSH0 REVERT JUMPDEST POP PUSH2 0x12C PUSH2 0x25F CALLDATASIZE PUSH1 0x4 PUSH2 0xA45 JUMP JUMPDEST PUSH2 0x8C1 JUMP JUMPDEST PUSH0 DUP2 DUP2 SLOAD DUP2 LT PUSH2 0x272 JUMPI PUSH0 DUP1 REVERT JUMPDEST PUSH0 SWAP2 DUP3 MSTORE PUSH1 0x20 SWAP1 SWAP2 KECCAK256 ADD SLOAD PUSH1 0x1 PUSH1 0x1 PUSH1 0xA0 SHL SUB AND SWAP1 POP DUP2 JUMP JUMPDEST CALLER PUSH0 SWAP1 DUP2 MSTORE PUSH1 0x1 PUSH1 0x20 MSTORE PUSH1 0x40 SWAP1 KECCAK256 SLOAD PUSH1 0xFF AND PUSH2 0x2C2 JUMPI PUSH1 0x40 MLOAD PUSH3 0x461BCD PUSH1 0xE5 SHL DUP2 MSTORE PUSH1 0x4 ADD PUSH2 0x2B9 SWAP1 PUSH2 0xC14 JUMP JUMPDEST PUSH1 0x40 MLOAD DUP1 SWAP2 SUB SWAP1 REVERT JUMPDEST PUSH0 PUSH1 0x4 DUP3 DUP2 SLOAD DUP2 LT PUSH2 0x2D6 JUMPI PUSH2 0x2D6 PUSH2 0xC3A JUMP JUMPDEST PUSH0 SWAP2 DUP3 MSTORE PUSH1 0x20 SWAP1 SWAP2 KECCAK256 PUSH1 0x5 SWAP1 SWAP2 MUL ADD PUSH1 0x3 DUP2 ADD SLOAD SWAP1 SWAP2 POP PUSH1 0xFF AND ISZERO PUSH2 0x30D JUMPI PUSH1 0x40 MLOAD PUSH3 0x461BCD PUSH1 0xE5 SHL DUP2 MSTORE PUSH1 0x4 ADD PUSH2 0x2B9 SWAP1 PUSH2 0xC4E JUMP JUMPDEST PUSH0 DUP3 DUP2 MSTORE PUSH1 0x5 PUSH1 0x20 SWAP1 DUP2 MSTORE PUSH1 0x40 DUP1 DUP4 KECCAK256 CALLER DUP5 MSTORE SWAP1 SWAP2 MSTORE SWAP1 KECCAK256 SLOAD PUSH1 0xFF AND ISZERO PUSH2 0x369 JUMPI PUSH1 0x40 MLOAD PUSH3 0x461BCD PUSH1 0xE5 SHL DUP2 MSTORE PUSH1 0x20 PUSH1 0x4 DUP3 ADD MSTORE PUSH1 0x10 PUSH1 0x24 DUP3 ADD MSTORE PUSH16 0x105B1C9958591E48185C1C1C9BDD9959 PUSH1 0x82 SHL PUSH1 0x44 DUP3 ADD MSTORE PUSH1 0x64 ADD PUSH2 0x2B9 JUMP JUMPDEST PUSH0 DUP3 DUP2 MSTORE PUSH1 0x5 PUSH1 0x20 SWAP1 DUP2 MSTORE PUSH1 0x40 DUP1 DUP4 KECCAK256 CALLER DUP5 MSTORE SWAP1 SWAP2 MSTORE DUP2 KECCAK256 DUP1 SLOAD PUSH1 0xFF NOT AND PUSH1 0x1 OR SWAP1 SSTORE PUSH1 0x4 DUP3 ADD DUP1 SLOAD SWAP2 PUSH2 0x39C DUP4 PUSH2 0xC8C JUMP JUMPDEST SWAP2 SWAP1 POP SSTORE POP POP POP JUMP JUMPDEST PUSH1 0x3 SLOAD PUSH1 0xFF AND ISZERO PUSH2 0x3EE JUMPI PUSH1 0x40 MLOAD PUSH3 0x461BCD PUSH1 0xE5 SHL DUP2 MSTORE PUSH1 0x20 PUSH1 0x4 DUP3 ADD MSTORE PUSH1 0x13 PUSH1 0x24 DUP3 ADD MSTORE PUSH19 0x105B1C9958591E481A5B9A5D1A585B1A5E9959 PUSH1 0x6A SHL PUSH1 0x44 DUP3 ADD MSTORE PUSH1 0x64 ADD PUSH2 0x2B9 JUMP JUMPDEST DUP2 PUSH2 0x427 JUMPI PUSH1 0x40 MLOAD PUSH3 0x461BCD PUSH1 0xE5 SHL DUP2 MSTORE PUSH1 0x20 PUSH1 0x4 DUP3 ADD MSTORE PUSH1 0x9 PUSH1 0x24 DUP3 ADD MSTORE PUSH9 0x4E6F206F776E657273 PUSH1 0xB8 SHL PUSH1 0x44 DUP3 ADD MSTORE PUSH1 0x64 ADD PUSH2 0x2B9 JUMP JUMPDEST PUSH0 DUP2 GT DUP1 ISZERO PUSH2 0x436 JUMPI POP DUP2 DUP2 GT ISZERO JUMPDEST PUSH2 0x482 JUMPI PUSH1 0x40 MLOAD PUSH3 0x461BCD PUSH1 0xE5 SHL DUP2 MSTORE PUSH1 0x20 PUSH1 0x4 DUP3 ADD MSTORE PUSH1 0x1A PUSH1 0x24 DUP3 ADD MSTORE PUSH32 0x496E76616C696420726571756972656420617070726F76616C73000000000000 PUSH1 0x44 DUP3 ADD MSTORE PUSH1 0x64 ADD PUSH2 0x2B9 JUMP JUMPDEST PUSH0 JUMPDEST DUP3 DUP2 LT ISZERO PUSH2 0x5BD JUMPI PUSH0 DUP5 DUP5 DUP4 DUP2 DUP2 LT PUSH2 0x49F JUMPI PUSH2 0x49F PUSH2 0xC3A JUMP JUMPDEST SWAP1 POP PUSH1 0x20 MUL ADD PUSH1 0x20 DUP2 ADD SWAP1 PUSH2 0x4B4 SWAP2 SWAP1 PUSH2 0xA77 JUMP JUMPDEST SWAP1 POP PUSH1 0x1 PUSH1 0x1 PUSH1 0xA0 SHL SUB DUP2 AND PUSH2 0x4FB JUMPI PUSH1 0x40 MLOAD PUSH3 0x461BCD PUSH1 0xE5 SHL DUP2 MSTORE PUSH1 0x20 PUSH1 0x4 DUP3 ADD MSTORE PUSH1 0xC PUSH1 0x24 DUP3 ADD MSTORE PUSH12 0x5A65726F2061646472657373 PUSH1 0xA0 SHL PUSH1 0x44 DUP3 ADD MSTORE PUSH1 0x64 ADD PUSH2 0x2B9 JUMP JUMPDEST PUSH1 0x1 PUSH1 0x1 PUSH1 0xA0 SHL SUB DUP2 AND PUSH0 SWAP1 DUP2 MSTORE PUSH1 0x1 PUSH1 0x20 MSTORE PUSH1 0x40 SWAP1 KECCAK256 SLOAD PUSH1 0xFF AND ISZERO PUSH2 0x555 JUMPI PUSH1 0x40 MLOAD PUSH3 0x461BCD PUSH1 0xE5 SHL DUP2 MSTORE PUSH1 0x20 PUSH1 0x4 DUP3 ADD MSTORE PUSH1 0xF PUSH1 0x24 DUP3 ADD MSTORE PUSH15 0x223AB83634B1B0BA329037BBB732B9 PUSH1 0x89 SHL PUSH1 0x44 DUP3 ADD MSTORE PUSH1 0x64 ADD PUSH2 0x2B9 JUMP JUMPDEST PUSH1 0x1 PUSH1 0x1 PUSH1 0xA0 SHL SUB AND PUSH0 DUP2 DUP2 MSTORE PUSH1 0x1 PUSH1 0x20 DUP2 SWAP1 MSTORE PUSH1 0x40 DUP3 KECCAK256 DUP1 SLOAD PUSH1 0xFF NOT AND DUP3 OR SWAP1 SSTORE DUP2 SLOAD DUP1 DUP3 ADD DUP4 SSTORE SWAP2 DUP1 MSTORE PUSH32 0x290DECD9548B62A8D60345A988386FC84BA6BC95484008F6362F93160EF3E563 SWAP1 SWAP2 ADD DUP1 SLOAD PUSH1 0x1 PUSH1 0x1 PUSH1 0xA0 SHL SUB NOT AND SWAP1 SWAP3 OR SWAP1 SWAP2 SSTORE ADD PUSH2 0x484 JUMP JUMPDEST POP PUSH1 0x2 SSTORE POP POP PUSH1 0x3 DUP1 SLOAD PUSH1 0xFF NOT AND PUSH1 0x1 OR SWAP1 SSTORE JUMP JUMPDEST PUSH1 0x4 DUP2 DUP2 SLOAD DUP2 LT PUSH2 0x5E1 JUMPI PUSH0 DUP1 REVERT JUMPDEST PUSH0 SWAP2 DUP3 MSTORE PUSH1 0x20 SWAP1 SWAP2 KECCAK256 PUSH1 0x5 SWAP1 SWAP2 MUL ADD DUP1 SLOAD PUSH1 0x1 DUP3 ADD SLOAD PUSH1 0x2 DUP4 ADD DUP1 SLOAD PUSH1 0x1 PUSH1 0x1 PUSH1 0xA0 SHL SUB SWAP1 SWAP4 AND SWAP5 POP SWAP1 SWAP3 SWAP2 PUSH2 0x616 SWAP1 PUSH2 0xCA4 JUMP JUMPDEST DUP1 PUSH1 0x1F ADD PUSH1 0x20 DUP1 SWAP2 DIV MUL PUSH1 0x20 ADD PUSH1 0x40 MLOAD SWAP1 DUP2 ADD PUSH1 0x40 MSTORE DUP1 SWAP3 SWAP2 SWAP1 DUP2 DUP2 MSTORE PUSH1 0x20 ADD DUP3 DUP1 SLOAD PUSH2 0x642 SWAP1 PUSH2 0xCA4 JUMP JUMPDEST DUP1 ISZERO PUSH2 0x68D JUMPI DUP1 PUSH1 0x1F LT PUSH2 0x664 JUMPI PUSH2 0x100 DUP1 DUP4 SLOAD DIV MUL DUP4 MSTORE SWAP2 PUSH1 0x20 ADD SWAP2 PUSH2 0x68D JUMP JUMPDEST DUP3 ADD SWAP2 SWAP1 PUSH0 MSTORE PUSH1 0x20 PUSH0 KECCAK256 SWAP1 JUMPDEST DUP2 SLOAD DUP2 MSTORE SWAP1 PUSH1 0x1 ADD SWAP1 PUSH1 0x20 ADD DUP1 DUP4 GT PUSH2 0x670 JUMPI DUP3 SWAP1 SUB PUSH1 0x1F AND DUP3 ADD SWAP2 JUMPDEST POP POP POP POP PUSH1 0x3 DUP4 ADD SLOAD PUSH1 0x4 SWAP1 SWAP4 ADD SLOAD SWAP2 SWAP3 PUSH1 0xFF AND SWAP2 SWAP1 POP DUP6 JUMP JUMPDEST CALLER PUSH0 SWAP1 DUP2 MSTORE PUSH1 0x1 PUSH1 0x20 MSTORE PUSH1 0x40 SWAP1 KECCAK256 SLOAD PUSH1 0xFF AND PUSH2 0x6D5 JUMPI PUSH1 0x40 MLOAD PUSH3 0x461BCD PUSH1 0xE5 SHL DUP2 MSTORE PUSH1 0x4 ADD PUSH2 0x2B9 SWAP1 PUSH2 0xC14 JUMP JUMPDEST PUSH0 PUSH1 0x4 DUP3 DUP2 SLOAD DUP2 LT PUSH2 0x6E9 JUMPI PUSH2 0x6E9 PUSH2 0xC3A JUMP JUMPDEST PUSH0 SWAP2 DUP3 MSTORE PUSH1 0x20 SWAP1 SWAP2 KECCAK256 PUSH1 0x5 SWAP1 SWAP2 MUL ADD PUSH1 0x3 DUP2 ADD SLOAD SWAP1 SWAP2 POP PUSH1 0xFF AND ISZERO PUSH2 0x720 JUMPI PUSH1 0x40 MLOAD PUSH3 0x461BCD PUSH1 0xE5 SHL DUP2 MSTORE PUSH1 0x4 ADD PUSH2 0x2B9 SWAP1 PUSH2 0xC4E JUMP JUMPDEST PUSH0 DUP3 DUP2 MSTORE PUSH1 0x5 PUSH1 0x20 SWAP1 DUP2 MSTORE PUSH1 0x40 DUP1 DUP4 KECCAK256 CALLER DUP5 MSTORE SWAP1 SWAP2 MSTORE SWAP1 KECCAK256 SLOAD PUSH1 0xFF AND PUSH2 0x77B JUMPI PUSH1 0x40 MLOAD PUSH3 0x461BCD PUSH1 0xE5 SHL DUP2 MSTORE PUSH1 0x20 PUSH1 0x4 DUP3 ADD MSTORE PUSH1 0x10 PUSH1 0x24 DUP3 ADD MSTORE PUSH16 0x139BDD081E595D08185C1C1C9BDD9959 PUSH1 0x82 SHL PUSH1 0x44 DUP3 ADD MSTORE PUSH1 0x64 ADD PUSH2 0x2B9 JUMP JUMPDEST PUSH0 DUP3 DUP2 MSTORE PUSH1 0x5 PUSH1 0x20 SWAP1 DUP2 MSTORE PUSH1 0x40 DUP1 DUP4 KECCAK256 CALLER DUP5 MSTORE SWAP1 SWAP2 MSTORE DUP2 KECCAK256 DUP1 SLOAD PUSH1 0xFF NOT AND SWAP1 SSTORE PUSH1 0x4 DUP3 ADD DUP1 SLOAD SWAP2 PUSH2 0x39C DUP4 PUSH2 0xCDC JUMP JUMPDEST CALLER PUSH0 SWAP1 DUP2 MSTORE PUSH1 0x1 PUSH1 0x20 MSTORE PUSH1 0x40 SWAP1 KECCAK256 SLOAD PUSH1 0xFF AND PUSH2 0x7D9 JUMPI PUSH1 0x40 MLOAD PUSH3 0x461BCD PUSH1 0xE5 SHL DUP2 MSTORE PUSH1 0x4 ADD PUSH2 0x2B9 SWAP1 PUSH2 0xC14 JUMP JUMPDEST PUSH1 0x4 PUSH1 0x40 MLOAD DUP1 PUSH1 0xA0 ADD PUSH1 0x40 MSTORE DUP1 DUP7 PUSH1 0x1 PUSH1 0x1 PUSH1 0xA0 SHL SUB AND DUP2 MSTORE PUSH1 0x20 ADD DUP6 DUP2 MSTORE PUSH1 0x20 ADD DUP5 DUP5 DUP1 DUP1 PUSH1 0x1F ADD PUSH1 0x20 DUP1 SWAP2 DIV MUL PUSH1 0x20 ADD PUSH1 0x40 MLOAD SWAP1 DUP2 ADD PUSH1 0x40 MSTORE DUP1 SWAP4 SWAP3 SWAP2 SWAP1 DUP2 DUP2 MSTORE PUSH1 0x20 ADD DUP4 DUP4 DUP1 DUP3 DUP5 CALLDATACOPY PUSH0 SWAP3 ADD DUP3 SWAP1 MSTORE POP SWAP4 DUP6 MSTORE POP POP POP PUSH1 0x20 DUP1 DUP4 ADD DUP3 SWAP1 MSTORE PUSH1 0x40 SWAP3 DUP4 ADD DUP3 SWAP1 MSTORE DUP5 SLOAD PUSH1 0x1 DUP1 DUP3 ADD DUP8 SSTORE SWAP6 DUP4 MSTORE SWAP2 DUP2 SWAP1 KECCAK256 DUP5 MLOAD PUSH1 0x5 SWAP1 SWAP4 MUL ADD DUP1 SLOAD PUSH1 0x1 PUSH1 0x1 PUSH1 0xA0 SHL SUB NOT AND PUSH1 0x1 PUSH1 0x1 PUSH1 0xA0 SHL SUB SWAP1 SWAP4 AND SWAP3 SWAP1 SWAP3 OR DUP3 SSTORE DUP4 ADD MLOAD SWAP4 DUP2 ADD SWAP4 SWAP1 SWAP4 SSTORE DUP2 ADD MLOAD SWAP1 SWAP2 SWAP1 PUSH1 0x2 DUP3 ADD SWAP1 PUSH2 0x896 SWAP1 DUP3 PUSH2 0xD50 JUMP JUMPDEST POP PUSH1 0x60 DUP3 ADD MLOAD PUSH1 0x3 DUP3 ADD DUP1 SLOAD PUSH1 0xFF NOT AND SWAP2 ISZERO ISZERO SWAP2 SWAP1 SWAP2 OR SWAP1 SSTORE PUSH1 0x80 SWAP1 SWAP2 ADD MLOAD PUSH1 0x4 SWAP1 SWAP2 ADD SSTORE POP POP POP POP JUMP JUMPDEST CALLER PUSH0 SWAP1 DUP2 MSTORE PUSH1 0x1 PUSH1 0x20 MSTORE PUSH1 0x40 SWAP1 KECCAK256 SLOAD PUSH1 0xFF AND PUSH2 0x8EF JUMPI PUSH1 0x40 MLOAD PUSH3 0x461BCD PUSH1 0xE5 SHL DUP2 MSTORE PUSH1 0x4 ADD PUSH2 0x2B9 SWAP1 PUSH2 0xC14 JUMP JUMPDEST PUSH0 PUSH1 0x4 DUP3 DUP2 SLOAD DUP2 LT PUSH2 0x903 JUMPI PUSH2 0x903 PUSH2 0xC3A JUMP JUMPDEST PUSH0 SWAP2 DUP3 MSTORE PUSH1 0x20 SWAP1 SWAP2 KECCAK256 PUSH1 0x5 SWAP1 SWAP2 MUL ADD PUSH1 0x3 DUP2 ADD SLOAD SWAP1 SWAP2 POP PUSH1 0xFF AND ISZERO PUSH2 0x93A JUMPI PUSH1 0x40 MLOAD PUSH3 0x461BCD PUSH1 0xE5 SHL DUP2 MSTORE PUSH1 0x4 ADD PUSH2 0x2B9 SWAP1 PUSH2 0xC4E JUMP JUMPDEST PUSH1 0x2 SLOAD DUP2 PUSH1 0x4 ADD SLOAD LT ISZERO PUSH2 0x987 JUMPI PUSH1 0x40 MLOAD PUSH3 0x461BCD PUSH1 0xE5 SHL DUP2 MSTORE PUSH1 0x20 PUSH1 0x4 DUP3 ADD MSTORE PUSH1 0x14 PUSH1 0x24 DUP3 ADD MSTORE PUSH20 0x4E6F7420656E6F75676820617070726F76616C73 PUSH1 0x60 SHL PUSH1 0x44 DUP3 ADD MSTORE PUSH1 0x64 ADD PUSH2 0x2B9 JUMP JUMPDEST PUSH1 0x3 DUP2 ADD DUP1 SLOAD PUSH1 0xFF NOT AND PUSH1 0x1 SWAP1 DUP2 OR SWAP1 SWAP2 SSTORE DUP2 SLOAD SWAP1 DUP3 ADD SLOAD PUSH1 0x40 MLOAD PUSH0 SWAP3 PUSH1 0x1 PUSH1 0x1 PUSH1 0xA0 SHL SUB AND SWAP2 SWAP1 PUSH2 0x9BD SWAP1 PUSH1 0x2 DUP7 ADD SWAP1 PUSH2 0xE0B JUMP JUMPDEST PUSH0 PUSH1 0x40 MLOAD DUP1 DUP4 SUB DUP2 DUP6 DUP8 GAS CALL SWAP3 POP POP POP RETURNDATASIZE DUP1 PUSH0 DUP2 EQ PUSH2 0x9F7 JUMPI PUSH1 0x40 MLOAD SWAP2 POP PUSH1 0x1F NOT PUSH1 0x3F RETURNDATASIZE ADD AND DUP3 ADD PUSH1 0x40 MSTORE RETURNDATASIZE DUP3 MSTORE RETURNDATASIZE PUSH0 PUSH1 0x20 DUP5 ADD RETURNDATACOPY PUSH2 0x9FC JUMP JUMPDEST PUSH1 0x60 SWAP2 POP JUMPDEST POP POP SWAP1 POP DUP1 PUSH2 0xA40 JUMPI PUSH1 0x40 MLOAD PUSH3 0x461BCD PUSH1 0xE5 SHL DUP2 MSTORE PUSH1 0x20 PUSH1 0x4 DUP3 ADD MSTORE PUSH1 0x10 PUSH1 0x24 DUP3 ADD MSTORE PUSH16 0x115E1958DD5D1A5BDB8819985A5B1959 PUSH1 0x82 SHL PUSH1 0x44 DUP3 ADD MSTORE PUSH1 0x64 ADD PUSH2 0x2B9 JUMP JUMPDEST POP POP POP JUMP JUMPDEST PUSH0 PUSH1 0x20 DUP3 DUP5 SUB SLT ISZERO PUSH2 0xA55 JUMPI PUSH0 PUSH0 REVERT JUMPDEST POP CALLDATALOAD SWAP2 SWAP1 POP JUMP JUMPDEST DUP1 CALLDATALOAD PUSH1 0x1 PUSH1 0x1 PUSH1 0xA0 SHL SUB DUP2 AND DUP2 EQ PUSH2 0xA72 JUMPI PUSH0 PUSH0 REVERT JUMPDEST SWAP2 SWAP1 POP JUMP JUMPDEST PUSH0 PUSH1 0x20 DUP3 DUP5 SUB SLT ISZERO PUSH2 0xA87 JUMPI PUSH0 PUSH0 REVERT JUMPDEST PUSH2 0xA90 DUP3 PUSH2 0xA5C JUMP JUMPDEST SWAP4 SWAP3 POP POP POP JUMP JUMPDEST PUSH0 PUSH0 PUSH0 PUSH1 0x40 DUP5 DUP7 SUB SLT ISZERO PUSH2 0xAA9 JUMPI PUSH0 PUSH0 REVERT JUMPDEST DUP4 CALLDATALOAD PUSH8 0xFFFFFFFFFFFFFFFF DUP2 GT ISZERO PUSH2 0xABF JUMPI PUSH0 PUSH0 REVERT JUMPDEST DUP5 ADD PUSH1 0x1F DUP2 ADD DUP7 SGT PUSH2 0xACF JUMPI PUSH0 PUSH0 REVERT JUMPDEST DUP1 CALLDATALOAD PUSH8 0xFFFFFFFFFFFFFFFF DUP2 GT ISZERO PUSH2 0xAE5 JUMPI PUSH0 PUSH0 REVERT JUMPDEST DUP7 PUSH1 0x20 DUP3 PUSH1 0x5 SHL DUP5 ADD ADD GT ISZERO PUSH2 0xAF9 JUMPI PUSH0 PUSH0 REVERT JUMPDEST PUSH1 0x20 SWAP2 DUP3 ADD SWAP8 SWAP1 SWAP7 POP SWAP5 ADD CALLDATALOAD SWAP4 SWAP3 POP POP POP JUMP JUMPDEST PUSH1 0x1 DUP1 PUSH1 0xA0 SHL SUB DUP7 AND DUP2 MSTORE DUP5 PUSH1 0x20 DUP3 ADD MSTORE PUSH1 0xA0 PUSH1 0x40 DUP3 ADD MSTORE PUSH0 DUP5 MLOAD DUP1 PUSH1 0xA0 DUP5 ADD MSTORE DUP1 PUSH1 0x20 DUP8 ADD PUSH1 0xC0 DUP6 ADD MCOPY PUSH0 PUSH1 0xC0 DUP3 DUP6 ADD ADD MSTORE PUSH1 0xC0 PUSH1 0x1F NOT PUSH1 0x1F DUP4 ADD AND DUP5 ADD ADD SWAP2 POP POP DUP4 ISZERO ISZERO PUSH1 0x60 DUP4 ADD MSTORE DUP3 PUSH1 0x80 DUP4 ADD MSTORE SWAP7 SWAP6 POP POP POP POP POP POP JUMP JUMPDEST PUSH0 PUSH0 PUSH1 0x40 DUP4 DUP6 SUB SLT ISZERO PUSH2 0xB78 JUMPI PUSH0 PUSH0 REVERT JUMPDEST DUP3 CALLDATALOAD SWAP2 POP PUSH2 0xB88 PUSH1 0x20 DUP5 ADD PUSH2 0xA5C JUMP JUMPDEST SWAP1 POP SWAP3 POP SWAP3 SWAP1 POP JUMP JUMPDEST PUSH0 PUSH0 PUSH0 PUSH0 PUSH1 0x60 DUP6 DUP8 SUB SLT ISZERO PUSH2 0xBA4 JUMPI PUSH0 PUSH0 REVERT JUMPDEST PUSH2 0xBAD DUP6 PUSH2 0xA5C JUMP JUMPDEST SWAP4 POP PUSH1 0x20 DUP6 ADD CALLDATALOAD SWAP3 POP PUSH1 0x40 DUP6 ADD CALLDATALOAD PUSH8 0xFFFFFFFFFFFFFFFF DUP2 GT ISZERO PUSH2 0xBCF JUMPI PUSH0 PUSH0 REVERT JUMPDEST DUP6 ADD PUSH1 0x1F DUP2 ADD DUP8 SGT PUSH2 0xBDF JUMPI PUSH0 PUSH0 REVERT JUMPDEST DUP1 CALLDATALOAD PUSH8 0xFFFFFFFFFFFFFFFF DUP2 GT ISZERO PUSH2 0xBF5 JUMPI PUSH0 PUSH0 REVERT JUMPDEST DUP8 PUSH1 0x20 DUP3 DUP5 ADD ADD GT ISZERO PUSH2 0xC06 JUMPI PUSH0 PUSH0 REVERT JUMPDEST SWAP5 SWAP8 SWAP4 SWAP7 POP PUSH1 0x20 ADD SWAP5 POP POP POP JUMP JUMPDEST PUSH1 0x20 DUP1 DUP3 MSTORE PUSH1 0xC SWAP1 DUP3 ADD MSTORE PUSH12 0x2737BA1030B71037BBB732B9 PUSH1 0xA1 SHL PUSH1 0x40 DUP3 ADD MSTORE PUSH1 0x60 ADD SWAP1 JUMP JUMPDEST PUSH4 0x4E487B71 PUSH1 0xE0 SHL PUSH0 MSTORE PUSH1 0x32 PUSH1 0x4 MSTORE PUSH1 0x24 PUSH0 REVERT JUMPDEST PUSH1 0x20 DUP1 DUP3 MSTORE PUSH1 0x10 SWAP1 DUP3 ADD MSTORE PUSH16 0x105B1C9958591E48195E1958DD5D1959 PUSH1 0x82 SHL PUSH1 0x40 DUP3 ADD MSTORE PUSH1 0x60 ADD SWAP1 JUMP JUMPDEST PUSH4 0x4E487B71 PUSH1 0xE0 SHL PUSH0 MSTORE PUSH1 0x11 PUSH1 0x4 MSTORE PUSH1 0x24 PUSH0 REVERT JUMPDEST PUSH0 PUSH1 0x1 DUP3 ADD PUSH2 0xC9D JUMPI PUSH2 0xC9D PUSH2 0xC78 JUMP JUMPDEST POP PUSH1 0x1 ADD SWAP1 JUMP JUMPDEST PUSH1 0x1 DUP2 DUP2 SHR SWAP1 DUP3 AND DUP1 PUSH2 0xCB8 JUMPI PUSH1 0x7F DUP3 AND SWAP2 POP JUMPDEST PUSH1 0x20 DUP3 LT DUP2 SUB PUSH2 0xCD6 JUMPI PUSH4 0x4E487B71 PUSH1 0xE0 SHL PUSH0 MSTORE PUSH1 0x22 PUSH1 0x4 MSTORE PUSH1 0x24 PUSH0 REVERT JUMPDEST POP SWAP2 SWAP1 POP JUMP JUMPDEST PUSH0 DUP2 PUSH2 0xCEA JUMPI PUSH2 0xCEA PUSH2 0xC78 JUMP JUMPDEST POP PUSH0 NOT ADD SWAP1 JUMP JUMPDEST PUSH4 0x4E487B71 PUSH1 0xE0 SHL PUSH0 MSTORE PUSH1 0x41 PUSH1 0x4 MSTORE PUSH1 0x24 PUSH0 REVERT JUMPDEST PUSH1 0x1F DUP3 GT ISZERO PUSH2 0xA40 JUMPI DUP1 PUSH0 MSTORE PUSH1 0x20 PUSH0 KECCAK256 PUSH1 0x1F DUP5 ADD PUSH1 0x5 SHR DUP2 ADD PUSH1 0x20 DUP6 LT ISZERO PUSH2 0xD2A JUMPI POP DUP1 JUMPDEST PUSH1 0x1F DUP5 ADD PUSH1 0x5 SHR DUP3 ADD SWAP2 POP JUMPDEST DUP2 DUP2 LT ISZERO PUSH2 0xD49 JUMPI PUSH0 DUP2 SSTORE PUSH1 0x1 ADD PUSH2 0xD36 JUMP JUMPDEST POP POP POP POP POP JUMP JUMPDEST DUP2 MLOAD PUSH8 0xFFFFFFFFFFFFFFFF DUP2 GT ISZERO PUSH2 0xD6A JUMPI PUSH2 0xD6A PUSH2 0xCF1 JUMP JUMPDEST PUSH2 0xD7E DUP2 PUSH2 0xD78 DUP5 SLOAD PUSH2 0xCA4 JUMP JUMPDEST DUP5 PUSH2 0xD05 JUMP JUMPDEST PUSH1 0x20 PUSH1 0x1F DUP3 GT PUSH1 0x1 DUP2 EQ PUSH2 0xDB0 JUMPI PUSH0 DUP4 ISZERO PUSH2 0xD99 JUMPI POP DUP5 DUP3 ADD MLOAD JUMPDEST PUSH0 NOT PUSH1 0x3 DUP6 SWAP1 SHL SHR NOT AND PUSH1 0x1 DUP5 SWAP1 SHL OR DUP5 SSTORE PUSH2 0xD49 JUMP JUMPDEST PUSH0 DUP5 DUP2 MSTORE PUSH1 0x20 DUP2 KECCAK256 PUSH1 0x1F NOT DUP6 AND SWAP2 JUMPDEST DUP3 DUP2 LT ISZERO PUSH2 0xDDF JUMPI DUP8 DUP6 ADD MLOAD DUP3 SSTORE PUSH1 0x20 SWAP5 DUP6 ADD SWAP5 PUSH1 0x1 SWAP1 SWAP3 ADD SWAP2 ADD PUSH2 0xDBF JUMP JUMPDEST POP DUP5 DUP3 LT ISZERO PUSH2 0xDFC JUMPI DUP7 DUP5 ADD MLOAD PUSH0 NOT PUSH1 0x3 DUP8 SWAP1 SHL PUSH1 0xF8 AND SHR NOT AND DUP2 SSTORE JUMPDEST POP POP POP POP PUSH1 0x1 SWAP1 DUP2 SHL ADD SWAP1 SSTORE POP JUMP JUMPDEST PUSH0 PUSH0 DUP4 SLOAD PUSH2 0xE18 DUP2 PUSH2 0xCA4 JUMP JUMPDEST PUSH1 0x1 DUP3 AND DUP1 ISZERO PUSH2 0xE2F JUMPI PUSH1 0x1 DUP2 EQ PUSH2 0xE44 JUMPI PUSH2 0xE71 JUMP JUMPDEST PUSH1 0xFF NOT DUP4 AND DUP7 MSTORE DUP2 ISZERO ISZERO DUP3 MUL DUP7 ADD SWAP4 POP PUSH2 0xE71 JUMP JUMPDEST DUP7 PUSH0 MSTORE PUSH1 0x20 PUSH0 KECCAK256 PUSH0 JUMPDEST DUP4 DUP2 LT ISZERO PUSH2 0xE69 JUMPI DUP2 SLOAD DUP9 DUP3 ADD MSTORE PUSH1 0x1 SWAP1 SWAP2 ADD SWAP1 PUSH1 0x20 ADD PUSH2 0xE4D JUMP JUMPDEST POP POP DUP2 DUP7 ADD SWAP4 POP JUMPDEST POP SWAP2 SWAP6 SWAP5 POP POP POP POP POP JUMP INVALID LOG2 PUSH5 0x6970667358 0x22 SLT KECCAK256 PUSH21 0x41E89CE8C602F03CBE7CCB6CE00759E743397B5256 EXTSTATICCALL 0xB3 LOG2 PUSH17 0x173082444C2F64736F6C634300081E0033 "
				},
				"gasEstimates": {
					"creation": {
						"codeDepositCost": "752400",
						"executionCost": "784",
						"totalCost": "753184"
					},
					"external": {
						"approvals(uint256,address)": "2669",
						"approveTransaction(uint256)": "57712",
						"executeTransaction(uint256)": "infinite",
						"initialize(address[],uint256)": "infinite",
						"initialized()": "2332",
						"isOwner(address)": "2595",
						"owners(uint256)": "4600",
						"requiredApprovals()": "2294",
						"revokeApproval(uint256)": "57720",
						"submitTransaction(address,uint256,bytes)": "infinite",
						"transactions(uint256)": "infinite"
					}
				},
				"methodIdentifiers": {
					"approvals(uint256,address)": "ab2850da",
					"approveTransaction(uint256)": "242232d1",
					"executeTransaction(uint256)": "ee22610b",
					"initialize(address[],uint256)": "60b5bb3f",
					"initialized()": "158ef93e",
					"isOwner(address)": "2f54bf6e",
					"owners(uint256)": "025e7c27",
					"requiredApprovals()": "99c1aadc",
					"revokeApproval(uint256)": "b1e130fc",
					"submitTransaction(address,uint256,bytes)": "c6427474",
					"transactions(uint256)": "9ace38c2"
				}
			},
			"storageLayout": {
				"storage": [
					{
						"astId": 4,
						"contract": "MultiSigWallet.sol:MultiSigWallet",
						"label": "owners",
						"offset": 0,
						"slot": "0",
						"type": "t_array(t_address)dyn_storage"
					},
					{
						"astId": 8,
						"contract": "MultiSigWallet.sol:MultiSigWallet",
						"label": "isOwner",
						"offset": 0,
						"slot": "1",
						"type": "t_mapping(t_address,t_bool)"
					},
					{
						"astId": 10,
						"contract": "MultiSigWallet.sol:MultiSigWallet",
						"label": "requiredApprovals",
						"offset": 0,
						"slot": "2",
						"type": "t_uint256"
					},
					{
						"astId": 12,
						"contract": "MultiSigWallet.sol:MultiSigWallet",
						"label": "initialized",
						"offset": 0,
						"slot": "3",
						"type": "t_bool"
					},
					{
						"astId": 27,
						"contract": "MultiSigWallet.sol:MultiSigWallet",
						"label": "transactions",
						"offset": 0,
						"slot": "4",
						"type": "t_array(t_struct(Transaction)23_storage)dyn_storage"
					},
					{
						"astId": 33,
						"contract": "MultiSigWallet.sol:MultiSigWallet",
						"label": "approvals",
						"offset": 0,
						"slot": "5",
						"type": "t_mapping(t_uint256,t_mapping(t_address,t_bool))"
					}
				],
				"types": {
					"t_address": {
						"encoding": "inplace",
						"label": "address",
						"numberOfBytes": "20"
					},
					"t_array(t_address)dyn_storage": {
						"base": "t_address",
						"encoding": "dynamic_array",
						"label": "address[]",
						"numberOfBytes": "32"
					},
					"t_array(t_struct(Transaction)23_storage)dyn_storage": {
						"base": "t_struct(Transaction)23_storage",
						"encoding": "dynamic_array",
						"label": "struct MultiSigWallet.Transaction[]",
						"numberOfBytes": "32"
					},
					"t_bool": {
						"encoding": "inplace",
						"label": "bool",
						"numberOfBytes": "1"
					},
					"t_bytes_storage": {
						"encoding": "bytes",
						"label": "bytes",
						"numberOfBytes": "32"
					},
					"t_mapping(t_address,t_bool)": {
						"encoding": "mapping",
						"key": "t_address",
						"label": "mapping(address => bool)",
						"numberOfBytes": "32",
						"value": "t_bool"
					},
					"t_mapping(t_uint256,t_mapping(t_address,t_bool))": {
						"encoding": "mapping",
						"key": "t_uint256",
						"label": "mapping(uint256 => mapping(address => bool))",
						"numberOfBytes": "32",
						"value": "t_mapping(t_address,t_bool)"
					},
					"t_struct(Transaction)23_storage": {
						"encoding": "inplace",
						"label": "struct MultiSigWallet.Transaction",
						"members": [
							{
								"astId": 14,
								"contract": "MultiSigWallet.sol:MultiSigWallet",
								"label": "to",
								"offset": 0,
								"slot": "0",
								"type": "t_address"
							},
							{
								"astId": 16,
								"contract": "MultiSigWallet.sol:MultiSigWallet",
								"label": "value",
								"offset": 0,
								"slot": "1",
								"type": "t_uint256"
							},
							{
								"astId": 18,
								"contract": "MultiSigWallet.sol:MultiSigWallet",
								"label": "data",
								"offset": 0,
								"slot": "2",
								"type": "t_bytes_storage"
							},
							{
								"astId": 20,
								"contract": "MultiSigWallet.sol:MultiSigWallet",
								"label": "executed",
								"offset": 0,
								"slot": "3",
								"type": "t_bool"
							},
							{
								"astId": 22,
								"contract": "MultiSigWallet.sol:MultiSigWallet",
								"label": "approvalCount",
								"offset": 0,
								"slot": "4",
								"type": "t_uint256"
							}
						],
						"numberOfBytes": "160"
					},
					"t_uint256": {
						"encoding": "inplace",
						"label": "uint256",
						"numberOfBytes": "32"
					}
				}
			},
			"userdoc": {
				"kind": "user",
				"methods": {},
				"version": 1
			}
		}
	}
}